{"contracts/AirQualityRecord.sol":{"AirQualityRecord":{"abi":[{"inputs":[],"stateMutability":"nonpayable","type":"constructor"},{"anonymous":false,"inputs":[{"indexed":false,"internalType":"uint256","name":"batchSize","type":"uint256"},{"indexed":false,"internalType":"uint256","name":"startTimestamp","type":"uint256"},{"indexed":false,"internalType":"uint256","name":"endTimestamp","type":"uint256"}],"name":"BatchReadingsRecorded","type":"event"},{"anonymous":false,"inputs":[{"indexed":true,"internalType":"uint256","name":"timestamp","type":"uint256"},{"indexed":false,"internalType":"string","name":"readingId","type":"string"},{"indexed":false,"internalType":"uint16","name":"pm10Value","type":"uint16"},{"indexed":false,"internalType":"uint16","name":"pm25Value","type":"uint16"},{"indexed":false,"internalType":"string","name":"category","type":"string"}],"name":"PollutionReadingRecorded","type":"event"},{"inputs":[{"internalType":"address","name":"_source","type":"address"}],"name":"addAuthorizedSource","outputs":[],"stateMutability":"nonpayable","type":"function"},{"inputs":[{"internalType":"uint256","name":"","type":"uint256"}],"name":"authorizedSources","outputs":[{"internalType":"address","name":"","type":"address"}],"stateMutability":"view","type":"function"},{"inputs":[{"internalType":"uint256[]","name":"_timestamps","type":"uint256[]"},{"internalType":"string[]","name":"_readingIds","type":"string[]"},{"internalType":"uint16[]","name":"_pm10Values","type":"uint16[]"},{"internalType":"uint16[]","name":"_pm25Values","type":"uint16[]"},{"internalType":"string[]","name":"_locations","type":"string[]"},{"internalType":"string[]","name":"_categories","type":"string[]"}],"name":"batchRecordReadings","outputs":[],"stateMutability":"nonpayable","type":"function"},{"inputs":[{"internalType":"string","name":"_readingId","type":"string"}],"name":"doesReadingExist","outputs":[{"internalType":"bool","name":"","type":"bool"}],"stateMutability":"view","type":"function"},{"inputs":[],"name":"getAuthorizedSourcesCount","outputs":[{"internalType":"uint256","name":"","type":"uint256"}],"stateMutability":"view","type":"function"},{"inputs":[{"internalType":"uint256","name":"_index","type":"uint256"}],"name":"getReading","outputs":[{"internalType":"uint256","name":"timestamp","type":"uint256"},{"internalType":"string","name":"readingId","type":"string"},{"internalType":"uint16","name":"pm10Value","type":"uint16"},{"internalType":"uint16","name":"pm25Value","type":"uint16"},{"internalType":"string","name":"location","type":"string"},{"internalType":"string","name":"category","type":"string"}],"stateMutability":"view","type":"function"},{"inputs":[{"internalType":"uint256","name":"_startTime","type":"uint256"},{"internalType":"uint256","name":"_endTime","type":"uint256"},{"internalType":"uint256","name":"_limit","type":"uint256"},{"internalType":"uint256","name":"_offset","type":"uint256"}],"name":"getReadingsByTimeRange","outputs":[{"internalType":"uint256[]","name":"indices","type":"uint256[]"},{"internalType":"uint256[]","name":"timestamps","type":"uint256[]"},{"internalType":"string[]","name":"readingIds","type":"string[]"},{"internalType":"uint16[]","name":"pm10Values","type":"uint16[]"},{"internalType":"uint16[]","name":"pm25Values","type":"uint16[]"}],"stateMutability":"view","type":"function"},{"inputs":[],"name":"owner","outputs":[{"internalType":"address","name":"","type":"address"}],"stateMutability":"view","type":"function"},{"inputs":[{"internalType":"string","name":"","type":"string"}],"name":"readingExists","outputs":[{"internalType":"bool","name":"","type":"bool"}],"stateMutability":"view","type":"function"},{"inputs":[{"internalType":"uint256","name":"","type":"uint256"}],"name":"readings","outputs":[{"internalType":"uint256","name":"timestamp","type":"uint256"},{"internalType":"string","name":"readingId","type":"string"},{"internalType":"uint16","name":"pm10Value","type":"uint16"},{"internalType":"uint16","name":"pm25Value","type":"uint16"},{"internalType":"string","name":"location","type":"string"},{"internalType":"string","name":"category","type":"string"}],"stateMutability":"view","type":"function"},{"inputs":[],"name":"readingsCount","outputs":[{"internalType":"uint256","name":"","type":"uint256"}],"stateMutability":"view","type":"function"},{"inputs":[{"internalType":"uint256","name":"_timestamp","type":"uint256"},{"internalType":"string","name":"_readingId","type":"string"},{"internalType":"uint16","name":"_pm10Value","type":"uint16"},{"internalType":"uint16","name":"_pm25Value","type":"uint16"},{"internalType":"string","name":"_location","type":"string"},{"internalType":"string","name":"_category","type":"string"}],"name":"recordReading","outputs":[],"stateMutability":"nonpayable","type":"function"},{"inputs":[{"internalType":"address","name":"_source","type":"address"}],"name":"removeAuthorizedSource","outputs":[],"stateMutability":"nonpayable","type":"function"}],"evm":{"bytecode":{"linkReferences":{},"object":"6080806040523460ab57600080546001600160a01b03191633179055600154680100000000000000008110156095576001810180600155811015607f5760016000527fb10e2d527612073b26eecdfd717e6a320cf44b4afac2b0732d9fcbe2b7fa0cf60180546001600160a01b03191633179055611e5e90816100b18239f35b634e487b7160e01b600052603260045260246000fd5b634e487b7160e01b600052604160045260246000fd5b600080fdfe61028080604052600436101561001457600080fd5b60003560e01c90816287a788146115ab5750806305ce82501461156957806334f2f28f146111c75780635abbd50b146111a95780636462069d1461118b5780638da5cb5b1461116257806391fe4a22146110f0578063aaf5d93b1461109a578063b3875cad14610771578063b497560e1461072f578063becd7b3f146106eb578063d5da886d1461067c5763f404a3b1146100ae57600080fd5b346106775760c0366003190112610677576004356024356001600160401b038111610677576100e1903690600401611854565b604435929161ffff8416808503610677576064359061ffff821691828103610677576084356001600160401b03811161067757610122903690600401611854565b979060a4356001600160401b03811161067757610143903690600401611854565b959094600060018060a01b0360005416331460001461060f57506101676001611a1e565b610172891515611abb565b61019460ff6040518b8b82376020818d81016004815203019020541615611b07565b6101cf604051936101a4856117d2565b8b85526101b2368c8c61180e565b9c602086019d8e526040860193845260608601948552369161180e565b91608084019283526101e236898961180e565b9b60a085019c8d5260025460005260036020526040600020945185556001850190518051906001600160401b03821161047857819061022184546118b1565b601f81116105bc575b50602090601f83116001146105575760009261054c575b50508160011b916000199060031b1c19161790555b61ffff6002850192511663ffff00008354925160101b169163ffffffff1916171790556003820190518051906001600160401b0382116104785761029a83546118b1565b601f8111610504575b50602090601f8311600114610499576004949392916000918361048e575b50508160011b916000199060031b1c19161790555b0197519788516001600160401b038111610478576102f482546118b1565b601f8111610430575b506020601f82116001146103a05790806103909796959493927f98c8159409888d0e18aa2b51f47b8635504232a3c0e9b170631c0804572dde149b9c600092610395575b50508160011b916000199060031b1c19161790555b604051878782376020818981016004815203019020600160ff1982541617905561038160025461198f565b60025560405196879687611b8f565b0390a2005b015190503880610341565b601f1982169a83600052816000209b60005b81811061041857509b60019284926103909a99989796957f98c8159409888d0e18aa2b51f47b8635504232a3c0e9b170631c0804572dde149e9f106103ff575b505050811b019055610356565b015160001960f88460031b161c191690553880806103f2565b838301518e556001909d019c602093840193016103b2565b826000526020600020601f830160051c8101916020841061046e575b601f0160051c01905b81811061046257506102fd565b60008155600101610455565b909150819061044c565b634e487b7160e01b600052604160045260246000fd5b0151905038806102c1565b90601f1983169184600052816000209260005b8181106104ec5750916001939185600498979694106104d3575b505050811b0190556102d6565b015160001960f88460031b161c191690553880806104c6565b929360206001819287860151815501950193016104ac565b836000526020600020601f840160051c81019160208510610542575b601f0160051c01905b81811061053657506102a3565b60008155600101610529565b9091508190610520565b015190503880610241565b60008581528281209350601f198516905b8181106105a4575090846001959493921061058b575b505050811b019055610256565b015160001960f88460031b161c1916905538808061057e565b92936020600181928786015181550195019301610568565b909150836000526020600020601f840160051c81019160208510610605575b90601f859493920160051c01905b8181106105f6575061022a565b600081558493506001016105e9565b90915081906105db565b6001549a9998979695949392919060005b8c811061063d575b506101679192939495969798999a9b50611a1e565b61064681611735565b90543360039290921b1c6001600160a01b03161461066657600101610620565b50999a508a99506001610167610628565b600080fd5b3461067757602036600319011261067757600435600052600360205260406000208054906106e76106af600183016118eb565b916002810154906106ce60046106c7600384016118eb565b92016118eb565b9160405195869561ffff808460101c16931691876116e3565b0390f35b34610677576020366003190112610677576004356001600160a01b03811681036106775761072d9061072860018060a01b03600054163314611bc9565b611d7d565b005b34610677576020366003190112610677576004356001600160a01b03811681036106775761072d9061076c60018060a01b03600054163314611bc9565b611c1f565b346106775760c0366003190112610677576004356001600160401b038111610677576107a1903690600401611881565b610220526024356001600160401b038111610677576107c4903690600401611881565b6101c0526044356001600160401b038111610677576107e7903690600401611881565b6101a052610180526064356001600160401b0381116106775761080e903690600401611881565b61026052610120526084356001600160401b03811161067757610835903690600401611881565b906101e0529060a4356001600160401b0381116106775761085a903690600401611881565b610160526101405260008054336001600160a01b039091160361104257506108826001611a1e565b6101c051610220511480611033575b80611024575b80611018575b80611009575b15610fc4576102205115610f875760646102205111610f4b57823561020052610200516102405260005b61022051811061092a576108e6610220516002546119b4565b6002557f5ef6c1fa8c7e1363d7f137af202aeea6d7027f2dd5b96cf545072d94a1e335d56060604051610220518152610200516020820152610240516040820152a1005b61094461093b826101c05185611a7a565b90501515611abb565b61097660ff6020610959846101c05187611a7a565b919082604051938492833781016004815203019020541615611b07565b61020051610988826102205187611a6a565b3510610f33575b610240516109a1826102205187611a6a565b3511610f1b575b6109b6816102205186611a6a565b35610a736109c8836101c05186611a7a565b906109e26109dd866101a05161018051611a6a565b611b5f565b61010052610a676109fd6109dd876102605161012051611a6a565b61ffff610a0e888b6101e051611a7a565b919092610a3e610a258b6101605161014051611a7a565b9790986040519b610a358d6117d2565b8c52369161180e565b60e0526020890160c05260e05160c0515281610100511660408a0152166060880152369161180e565b6080850152369161180e565b60a0820152610a84826002546119b4565b6000526003602052604060002060a052805160a0515560c051518051906001600160401b038211610478578190610ac0600160a05101546118b1565b601f8111610ec6575b50602090601f8311600114610e5157600092610e46575b50508160011b916000199060031b1c191617600160a05101555b600260a0510161ffff60408301511681549063ffff0000606085015160101b169163ffffffff1916171790556080810151608052608051516001600160401b03811161047857610b4f600360a05101546118b1565b601f8111610dfd575b506020601f8211600114610d8757908060a09392600091610d7a575b508160011b916000199060031b1c1916176003835101555b01518051906001600160401b03821161047857610bae600460a05101546118b1565b601f8111610d31575b50602090601f8311600114610cbb57600193929160009183610cb0575b505081841b916000199060031b1c191617600460a05101555b6020610bfd826101c05186611a7a565b9190826040519384928337810160048152030190208260ff19825416179055610c2a816102205187611a6a565b357f98c8159409888d0e18aa2b51f47b8635504232a3c0e9b170631c0804572dde14610c5a836101c05187611a7a565b90610ca7610c726109dd876101a05161018051611a6a565b610c866109dd886102605161012051611a6a565b90610c98886101605161014051611a7a565b92909160405196879687611b8f565b0390a2016108cd565b015190508780610bd4565b90600460a05101600052806000209160005b601f1985168110610d19575091839160019594938694601f19811610610d00575b505050811b01600460a0510155610bed565b015160001960f88460031b161c19169055878080610cee565b91926020600181928685015181550194019201610ccd565b600460a051016000526020600020601f840160051c810160208510610d73575b601f830160051c82018110610d67575050610bb7565b60008155600101610d51565b5080610d51565b9050608051015188610b74565b600360a05101600052806000209060005b601f1984168110610de357509160019160a0949382601f19811610610dc8575b5050811b01600383510155610b8c565b608051015160001960f88460031b161c191690558880610db8565b909160206001819285608051015181550193019101610d98565b600360a051016000526020600020601f830160051c810160208410610e3f575b601f830160051c82018110610e33575050610b58565b60008155600101610e1d565b5080610e1d565b015190508780610ae0565b9250600160a0510160005280600020906000935b601f1984168510610eab576001945083601f19811610610e92575b505050811b01600160a0510155610afa565b015160001960f88460031b161c19169055878080610e80565b81810151835560209485019460019093019290910190610e65565b909150600160a051016000526020600020601f840160051c810160208510610f14575b90849392915b601f830160051c82018110610f05575050610ac9565b60008155859450600101610eef565b5080610ee9565b610f29816102205186611a6a565b35610240526109a8565b610f41816102205186611a6a565b356102005261098f565b60405162461bcd60e51b815260206004820152601460248201527342617463682073697a6520746f6f206c6172676560601b6044820152606490fd5b60405162461bcd60e51b815260206004820152601560248201527442617463682063616e6e6f7420626520656d70747960581b6044820152606490fd5b60405162461bcd60e51b815260206004820152601a60248201527f4172726179206c656e6774687320646f206e6f74206d617463680000000000006044820152606490fd5b506101605161022051146108a3565b5081610220511461089d565b50610260516102205114610897565b506101a0516102205114610891565b60015492919060005b848110611060575b5061088291929350611a1e565b61106981611735565b90543360039290921b1c6001600160a01b0316146110895760010161104b565b509192508291506001610882611053565b34610677576020366003190112610677576004356001600160401b0381116106775760ff60206110cf81933690600401611854565b91908260405193849283378101600481520301902054166040519015158152f35b34610677576020366003190112610677576004356001600160401b03811161067757366023820112156106775760ff61114c60206111398194369060248160040135910161180e565b816040519382858094519384920161169b565b8101600481520301902054166040519015158152f35b34610677576000366003190112610677576000546040516001600160a01b039091168152602090f35b34610677576000366003190112610677576020600254604051908152f35b34610677576000366003190112610677576020600154604051908152f35b346106775760803660031901126106775760643560443560043560243580821161152f57606483116114f857600090819282600254905b818110806114e6575b156112815780600052600360205282604060002054101580611269575b611237575b6112329061198f565b6111fe565b94878110156112555761124c6112329161198f565b955b9050611229565b94936112636112329161198f565b9461124e565b50806000526003602052836040600020541115611224565b509491935091818111156114de5750915b61129b836119d8565b946112a5846119d8565b6112ae856119c1565b906112bc60405192836117ed565b858252601f196112cb876119c1565b0160005b8181106114cd5750506112e1866119d8565b926112eb876119d8565b946000968798885b8b8110806114c4575b1561141257806000526003602052826040600020541015806113fa575b61132c575b6113279061198f565b6112f3565b998c8582101561134c57506113436113279161198f565b9a5b905061131e565b8a8c611360611327949e9d6113f494611a0a565b528b600052600360205260406000205461137a828a611a0a565b528b600052600360205261139460016040600020016118eb565b61139e828b611a0a565b526113a9818a611a0a565b508b600052600360205261ffff600260406000200154166113ca828c611a0a565b528b600052600360205261ffff60026040600020015460101c166113ee828d611a0a565b5261198f565b99611345565b50806000526003602052836040600020541115611319565b6114318d8a898b61143f8b60405196879660a0885260a0880190611766565b908682036020880152611766565b8481036040860152825180825260208201916020808360051b8301019501926000915b83831061148f5788806106e78a6114818b8b858203606087015261179a565b90838203608085015261179a565b91939697509193946020806114b0600193601f198682030187528a516116be565b980193019301909288979695949293611462565b50818a106112fc565b8060606020809387010152016112cf565b905091611292565b506114f188886119b4565b8510611207565b60405162461bcd60e51b815260206004820152600f60248201526e4c696d697420746f6f206c6172676560881b6044820152606490fd5b60405162461bcd60e51b8152602060048201526012602482015271496e76616c69642074696d652072616e676560701b6044820152606490fd5b346106775760203660031901126106775760043560015481101561067757611592602091611735565b905460405160039290921b1c6001600160a01b03168152f35b3461067757602036600319011261067757600435906002548210156116605750600052600360205260406000206040516115e4816117d2565b815481526106e76115f7600184016118eb565b91602081019283526002840154604082019461ffff8216865261ffff606084019260101c16825261ffff806116416004611633600386016118eb565b9460808801958652016118eb565b948560a0820152519651975116925116905191604051968796876116e3565b62461bcd60e51b8152602060048201526016602482015275149958591a5b99c8191bd95cc81b9bdd08195e1a5cdd60521b6044820152606490fd5b60005b8381106116ae5750506000910152565b818101518382015260200161169e565b906020916116d78151809281855285808601910161169b565b601f01601f1916010190565b9490611732969461ffff61170a611724969582948a5260c060208b015260c08a01906116be565b9416604088015216606086015284820360808601526116be565b9160a08184039101526116be565b90565b60015481101561175057600160005260206000200190600090565b634e487b7160e01b600052603260045260246000fd5b906020808351928381520192019060005b8181106117845750505090565b8251845260209384019390920191600101611777565b906020808351928381520192019060005b8181106117b85750505090565b825161ffff168452602093840193909201916001016117ab565b60c081019081106001600160401b0382111761047857604052565b90601f801991011681019081106001600160401b0382111761047857604052565b9291926001600160401b0382116104785760405191611837601f8201601f1916602001846117ed565b829481845281830111610677578281602093846000960137010152565b9181601f84011215610677578235916001600160401b038311610677576020838186019501011161067757565b9181601f84011215610677578235916001600160401b038311610677576020808501948460051b01011161067757565b90600182811c921680156118e1575b60208310146118cb57565b634e487b7160e01b600052602260045260246000fd5b91607f16916118c0565b90604051918260008254926118ff846118b1565b808452936001811690811561196d5750600114611926575b50611924925003836117ed565b565b90506000929192526020600020906000915b8183106119515750509060206119249282010138611917565b6020919350806001915483858901015201910190918492611938565b90506020925061192494915060ff191682840152151560051b82010138611917565b600019811461199e5760010190565b634e487b7160e01b600052601160045260246000fd5b9190820180921161199e57565b6001600160401b0381116104785760051b60200190565b906119e2826119c1565b6119ef60405191826117ed565b8281528092611a00601f19916119c1565b0190602036910137565b80518210156117505760209160051b010190565b15611a2557565b60405162461bcd60e51b815260206004820152601860248201527f43616c6c6572206973206e6f7420617574686f72697a656400000000000000006044820152606490fd5b91908110156117505760051b0190565b91908110156117505760051b81013590601e19813603018212156106775701908135916001600160401b038311610677576020018236038113610677579190565b15611ac257565b60405162461bcd60e51b815260206004820152601a60248201527f52656164696e672049442063616e6e6f7420626520656d7074790000000000006044820152606490fd5b15611b0e57565b60405162461bcd60e51b815260206004820152602360248201527f52656164696e672077697468207468697320494420616c72656164792065786960448201526273747360e81b6064820152608490fd5b3561ffff811681036106775790565b908060209392818452848401376000828201840152601f01601f1916010190565b919361ffff611baf81936117329997989698608087526080870191611b6e565b961660208401521660408201526060818503910152611b6e565b15611bd057565b60405162461bcd60e51b815260206004820152602160248201527f4f6e6c79206f776e65722063616e2063616c6c20746869732066756e6374696f6044820152603760f91b6064820152608490fd5b6000546001600160a01b0391821691168114611d425760005b60015480821015611d095782611c4d83611735565b905460039190911b1c6001600160a01b031614611c6d5750600101611c38565b60001981019250821161199e57611ca1611c89611cc593611735565b905460039190911b1c6001600160a01b031691611735565b81546001600160a01b0393841660039290921b91821b9390911b1916919091179055565b6001548015611cf35760001901611cdb81611735565b81549060018060a01b039060031b1b19169055600155565b634e487b7160e01b600052603160045260246000fd5b60405162461bcd60e51b81526020600482015260116024820152701059191c995cdcc81b9bdd08199bdd5b99607a1b6044820152606490fd5b60405162461bcd60e51b815260206004820152601360248201527221b0b73737ba103932b6b7bb329037bbb732b960691b6044820152606490fd5b6001600160a01b038116908115611df1576001549160005b838110611dc25750506801000000000000000082101561047857611ca18260016119249401600155611735565b81611dcc82611735565b905460039190911b1c6001600160a01b031614611deb57600101611d95565b50505050565b60405162461bcd60e51b815260206004820152600f60248201526e496e76616c6964206164647265737360881b6044820152606490fdfea2646970667358221220581a10b63ab06beae5a515b3210dde3e6eaf1dbe20dea8b759f7843872aa582964736f6c634300081c0033","opcodes":"PUSH1 0x80 DUP1 PUSH1 0x40 MSTORE CALLVALUE PUSH1 0xAB JUMPI PUSH1 0x0 DUP1 SLOAD PUSH1 0x1 PUSH1 0x1 PUSH1 0xA0 SHL SUB NOT AND CALLER OR SWAP1 SSTORE PUSH1 0x1 SLOAD PUSH9 0x10000000000000000 DUP2 LT ISZERO PUSH1 0x95 JUMPI PUSH1 0x1 DUP2 ADD DUP1 PUSH1 0x1 SSTORE DUP2 LT ISZERO PUSH1 0x7F JUMPI PUSH1 0x1 PUSH1 0x0 MSTORE PUSH32 0xB10E2D527612073B26EECDFD717E6A320CF44B4AFAC2B0732D9FCBE2B7FA0CF6 ADD DUP1 SLOAD PUSH1 0x1 PUSH1 0x1 PUSH1 0xA0 SHL SUB NOT AND CALLER OR SWAP1 SSTORE PUSH2 0x1E5E SWAP1 DUP2 PUSH2 0xB1 DUP3 CODECOPY RETURN JUMPDEST PUSH4 0x4E487B71 PUSH1 0xE0 SHL PUSH1 0x0 MSTORE PUSH1 0x32 PUSH1 0x4 MSTORE PUSH1 0x24 PUSH1 0x0 REVERT JUMPDEST PUSH4 0x4E487B71 PUSH1 0xE0 SHL PUSH1 0x0 MSTORE PUSH1 0x41 PUSH1 0x4 MSTORE PUSH1 0x24 PUSH1 0x0 REVERT JUMPDEST PUSH1 0x0 DUP1 REVERT INVALID PUSH2 0x280 DUP1 PUSH1 0x40 MSTORE PUSH1 0x4 CALLDATASIZE LT ISZERO PUSH2 0x14 JUMPI PUSH1 0x0 DUP1 REVERT JUMPDEST PUSH1 0x0 CALLDATALOAD PUSH1 0xE0 SHR SWAP1 DUP2 PUSH3 0x87A788 EQ PUSH2 0x15AB JUMPI POP DUP1 PUSH4 0x5CE8250 EQ PUSH2 0x1569 JUMPI DUP1 PUSH4 0x34F2F28F EQ PUSH2 0x11C7 JUMPI DUP1 PUSH4 0x5ABBD50B EQ PUSH2 0x11A9 JUMPI DUP1 PUSH4 0x6462069D EQ PUSH2 0x118B JUMPI DUP1 PUSH4 0x8DA5CB5B EQ PUSH2 0x1162 JUMPI DUP1 PUSH4 0x91FE4A22 EQ PUSH2 0x10F0 JUMPI DUP1 PUSH4 0xAAF5D93B EQ PUSH2 0x109A JUMPI DUP1 PUSH4 0xB3875CAD EQ PUSH2 0x771 JUMPI DUP1 PUSH4 0xB497560E EQ PUSH2 0x72F JUMPI DUP1 PUSH4 0xBECD7B3F EQ PUSH2 0x6EB JUMPI DUP1 PUSH4 0xD5DA886D EQ PUSH2 0x67C JUMPI PUSH4 0xF404A3B1 EQ PUSH2 0xAE JUMPI PUSH1 0x0 DUP1 REVERT JUMPDEST CALLVALUE PUSH2 0x677 JUMPI PUSH1 0xC0 CALLDATASIZE PUSH1 0x3 NOT ADD SLT PUSH2 0x677 JUMPI PUSH1 0x4 CALLDATALOAD PUSH1 0x24 CALLDATALOAD PUSH1 0x1 PUSH1 0x1 PUSH1 0x40 SHL SUB DUP2 GT PUSH2 0x677 JUMPI PUSH2 0xE1 SWAP1 CALLDATASIZE SWAP1 PUSH1 0x4 ADD PUSH2 0x1854 JUMP JUMPDEST PUSH1 0x44 CALLDATALOAD SWAP3 SWAP2 PUSH2 0xFFFF DUP5 AND DUP1 DUP6 SUB PUSH2 0x677 JUMPI PUSH1 0x64 CALLDATALOAD SWAP1 PUSH2 0xFFFF DUP3 AND SWAP2 DUP3 DUP2 SUB PUSH2 0x677 JUMPI PUSH1 0x84 CALLDATALOAD PUSH1 0x1 PUSH1 0x1 PUSH1 0x40 SHL SUB DUP2 GT PUSH2 0x677 JUMPI PUSH2 0x122 SWAP1 CALLDATASIZE SWAP1 PUSH1 0x4 ADD PUSH2 0x1854 JUMP JUMPDEST SWAP8 SWAP1 PUSH1 0xA4 CALLDATALOAD PUSH1 0x1 PUSH1 0x1 PUSH1 0x40 SHL SUB DUP2 GT PUSH2 0x677 JUMPI PUSH2 0x143 SWAP1 CALLDATASIZE SWAP1 PUSH1 0x4 ADD PUSH2 0x1854 JUMP JUMPDEST SWAP6 SWAP1 SWAP5 PUSH1 0x0 PUSH1 0x1 DUP1 PUSH1 0xA0 SHL SUB PUSH1 0x0 SLOAD AND CALLER EQ PUSH1 0x0 EQ PUSH2 0x60F JUMPI POP PUSH2 0x167 PUSH1 0x1 PUSH2 0x1A1E JUMP JUMPDEST PUSH2 0x172 DUP10 ISZERO ISZERO PUSH2 0x1ABB JUMP JUMPDEST PUSH2 0x194 PUSH1 0xFF PUSH1 0x40 MLOAD DUP12 DUP12 DUP3 CALLDATACOPY PUSH1 0x20 DUP2 DUP14 DUP2 ADD PUSH1 0x4 DUP2 MSTORE SUB ADD SWAP1 KECCAK256 SLOAD AND ISZERO PUSH2 0x1B07 JUMP JUMPDEST PUSH2 0x1CF PUSH1 0x40 MLOAD SWAP4 PUSH2 0x1A4 DUP6 PUSH2 0x17D2 JUMP JUMPDEST DUP12 DUP6 MSTORE PUSH2 0x1B2 CALLDATASIZE DUP13 DUP13 PUSH2 0x180E JUMP JUMPDEST SWAP13 PUSH1 0x20 DUP7 ADD SWAP14 DUP15 MSTORE PUSH1 0x40 DUP7 ADD SWAP4 DUP5 MSTORE PUSH1 0x60 DUP7 ADD SWAP5 DUP6 MSTORE CALLDATASIZE SWAP2 PUSH2 0x180E JUMP JUMPDEST SWAP2 PUSH1 0x80 DUP5 ADD SWAP3 DUP4 MSTORE PUSH2 0x1E2 CALLDATASIZE DUP10 DUP10 PUSH2 0x180E JUMP JUMPDEST SWAP12 PUSH1 0xA0 DUP6 ADD SWAP13 DUP14 MSTORE PUSH1 0x2 SLOAD PUSH1 0x0 MSTORE PUSH1 0x3 PUSH1 0x20 MSTORE PUSH1 0x40 PUSH1 0x0 KECCAK256 SWAP5 MLOAD DUP6 SSTORE PUSH1 0x1 DUP6 ADD SWAP1 MLOAD DUP1 MLOAD SWAP1 PUSH1 0x1 PUSH1 0x1 PUSH1 0x40 SHL SUB DUP3 GT PUSH2 0x478 JUMPI DUP2 SWAP1 PUSH2 0x221 DUP5 SLOAD PUSH2 0x18B1 JUMP JUMPDEST PUSH1 0x1F DUP2 GT PUSH2 0x5BC JUMPI JUMPDEST POP PUSH1 0x20 SWAP1 PUSH1 0x1F DUP4 GT PUSH1 0x1 EQ PUSH2 0x557 JUMPI PUSH1 0x0 SWAP3 PUSH2 0x54C JUMPI JUMPDEST POP POP DUP2 PUSH1 0x1 SHL SWAP2 PUSH1 0x0 NOT SWAP1 PUSH1 0x3 SHL SHR NOT AND OR SWAP1 SSTORE JUMPDEST PUSH2 0xFFFF PUSH1 0x2 DUP6 ADD SWAP3 MLOAD AND PUSH4 0xFFFF0000 DUP4 SLOAD SWAP3 MLOAD PUSH1 0x10 SHL AND SWAP2 PUSH4 0xFFFFFFFF NOT AND OR OR SWAP1 SSTORE PUSH1 0x3 DUP3 ADD SWAP1 MLOAD DUP1 MLOAD SWAP1 PUSH1 0x1 PUSH1 0x1 PUSH1 0x40 SHL SUB DUP3 GT PUSH2 0x478 JUMPI PUSH2 0x29A DUP4 SLOAD PUSH2 0x18B1 JUMP JUMPDEST PUSH1 0x1F DUP2 GT PUSH2 0x504 JUMPI JUMPDEST POP PUSH1 0x20 SWAP1 PUSH1 0x1F DUP4 GT PUSH1 0x1 EQ PUSH2 0x499 JUMPI PUSH1 0x4 SWAP5 SWAP4 SWAP3 SWAP2 PUSH1 0x0 SWAP2 DUP4 PUSH2 0x48E JUMPI JUMPDEST POP POP DUP2 PUSH1 0x1 SHL SWAP2 PUSH1 0x0 NOT SWAP1 PUSH1 0x3 SHL SHR NOT AND OR SWAP1 SSTORE JUMPDEST ADD SWAP8 MLOAD SWAP8 DUP9 MLOAD PUSH1 0x1 PUSH1 0x1 PUSH1 0x40 SHL SUB DUP2 GT PUSH2 0x478 JUMPI PUSH2 0x2F4 DUP3 SLOAD PUSH2 0x18B1 JUMP JUMPDEST PUSH1 0x1F DUP2 GT PUSH2 0x430 JUMPI JUMPDEST POP PUSH1 0x20 PUSH1 0x1F DUP3 GT PUSH1 0x1 EQ PUSH2 0x3A0 JUMPI SWAP1 DUP1 PUSH2 0x390 SWAP8 SWAP7 SWAP6 SWAP5 SWAP4 SWAP3 PUSH32 0x98C8159409888D0E18AA2B51F47B8635504232A3C0E9B170631C0804572DDE14 SWAP12 SWAP13 PUSH1 0x0 SWAP3 PUSH2 0x395 JUMPI JUMPDEST POP POP DUP2 PUSH1 0x1 SHL SWAP2 PUSH1 0x0 NOT SWAP1 PUSH1 0x3 SHL SHR NOT AND OR SWAP1 SSTORE JUMPDEST PUSH1 0x40 MLOAD DUP8 DUP8 DUP3 CALLDATACOPY PUSH1 0x20 DUP2 DUP10 DUP2 ADD PUSH1 0x4 DUP2 MSTORE SUB ADD SWAP1 KECCAK256 PUSH1 0x1 PUSH1 0xFF NOT DUP3 SLOAD AND OR SWAP1 SSTORE PUSH2 0x381 PUSH1 0x2 SLOAD PUSH2 0x198F JUMP JUMPDEST PUSH1 0x2 SSTORE PUSH1 0x40 MLOAD SWAP7 DUP8 SWAP7 DUP8 PUSH2 0x1B8F JUMP JUMPDEST SUB SWAP1 LOG2 STOP JUMPDEST ADD MLOAD SWAP1 POP CODESIZE DUP1 PUSH2 0x341 JUMP JUMPDEST PUSH1 0x1F NOT DUP3 AND SWAP11 DUP4 PUSH1 0x0 MSTORE DUP2 PUSH1 0x0 KECCAK256 SWAP12 PUSH1 0x0 JUMPDEST DUP2 DUP2 LT PUSH2 0x418 JUMPI POP SWAP12 PUSH1 0x1 SWAP3 DUP5 SWAP3 PUSH2 0x390 SWAP11 SWAP10 SWAP9 SWAP8 SWAP7 SWAP6 PUSH32 0x98C8159409888D0E18AA2B51F47B8635504232A3C0E9B170631C0804572DDE14 SWAP15 SWAP16 LT PUSH2 0x3FF JUMPI JUMPDEST POP POP POP DUP2 SHL ADD SWAP1 SSTORE PUSH2 0x356 JUMP JUMPDEST ADD MLOAD PUSH1 0x0 NOT PUSH1 0xF8 DUP5 PUSH1 0x3 SHL AND SHR NOT AND SWAP1 SSTORE CODESIZE DUP1 DUP1 PUSH2 0x3F2 JUMP JUMPDEST DUP4 DUP4 ADD MLOAD DUP15 SSTORE PUSH1 0x1 SWAP1 SWAP14 ADD SWAP13 PUSH1 0x20 SWAP4 DUP5 ADD SWAP4 ADD PUSH2 0x3B2 JUMP JUMPDEST DUP3 PUSH1 0x0 MSTORE PUSH1 0x20 PUSH1 0x0 KECCAK256 PUSH1 0x1F DUP4 ADD PUSH1 0x5 SHR DUP2 ADD SWAP2 PUSH1 0x20 DUP5 LT PUSH2 0x46E JUMPI JUMPDEST PUSH1 0x1F ADD PUSH1 0x5 SHR ADD SWAP1 JUMPDEST DUP2 DUP2 LT PUSH2 0x462 JUMPI POP PUSH2 0x2FD JUMP JUMPDEST PUSH1 0x0 DUP2 SSTORE PUSH1 0x1 ADD PUSH2 0x455 JUMP JUMPDEST SWAP1 SWAP2 POP DUP2 SWAP1 PUSH2 0x44C JUMP JUMPDEST PUSH4 0x4E487B71 PUSH1 0xE0 SHL PUSH1 0x0 MSTORE PUSH1 0x41 PUSH1 0x4 MSTORE PUSH1 0x24 PUSH1 0x0 REVERT JUMPDEST ADD MLOAD SWAP1 POP CODESIZE DUP1 PUSH2 0x2C1 JUMP JUMPDEST SWAP1 PUSH1 0x1F NOT DUP4 AND SWAP2 DUP5 PUSH1 0x0 MSTORE DUP2 PUSH1 0x0 KECCAK256 SWAP3 PUSH1 0x0 JUMPDEST DUP2 DUP2 LT PUSH2 0x4EC JUMPI POP SWAP2 PUSH1 0x1 SWAP4 SWAP2 DUP6 PUSH1 0x4 SWAP9 SWAP8 SWAP7 SWAP5 LT PUSH2 0x4D3 JUMPI JUMPDEST POP POP POP DUP2 SHL ADD SWAP1 SSTORE PUSH2 0x2D6 JUMP JUMPDEST ADD MLOAD PUSH1 0x0 NOT PUSH1 0xF8 DUP5 PUSH1 0x3 SHL AND SHR NOT AND SWAP1 SSTORE CODESIZE DUP1 DUP1 PUSH2 0x4C6 JUMP JUMPDEST SWAP3 SWAP4 PUSH1 0x20 PUSH1 0x1 DUP2 SWAP3 DUP8 DUP7 ADD MLOAD DUP2 SSTORE ADD SWAP6 ADD SWAP4 ADD PUSH2 0x4AC JUMP JUMPDEST DUP4 PUSH1 0x0 MSTORE PUSH1 0x20 PUSH1 0x0 KECCAK256 PUSH1 0x1F DUP5 ADD PUSH1 0x5 SHR DUP2 ADD SWAP2 PUSH1 0x20 DUP6 LT PUSH2 0x542 JUMPI JUMPDEST PUSH1 0x1F ADD PUSH1 0x5 SHR ADD SWAP1 JUMPDEST DUP2 DUP2 LT PUSH2 0x536 JUMPI POP PUSH2 0x2A3 JUMP JUMPDEST PUSH1 0x0 DUP2 SSTORE PUSH1 0x1 ADD PUSH2 0x529 JUMP JUMPDEST SWAP1 SWAP2 POP DUP2 SWAP1 PUSH2 0x520 JUMP JUMPDEST ADD MLOAD SWAP1 POP CODESIZE DUP1 PUSH2 0x241 JUMP JUMPDEST PUSH1 0x0 DUP6 DUP2 MSTORE DUP3 DUP2 KECCAK256 SWAP4 POP PUSH1 0x1F NOT DUP6 AND SWAP1 JUMPDEST DUP2 DUP2 LT PUSH2 0x5A4 JUMPI POP SWAP1 DUP5 PUSH1 0x1 SWAP6 SWAP5 SWAP4 SWAP3 LT PUSH2 0x58B JUMPI JUMPDEST POP POP POP DUP2 SHL ADD SWAP1 SSTORE PUSH2 0x256 JUMP JUMPDEST ADD MLOAD PUSH1 0x0 NOT PUSH1 0xF8 DUP5 PUSH1 0x3 SHL AND SHR NOT AND SWAP1 SSTORE CODESIZE DUP1 DUP1 PUSH2 0x57E JUMP JUMPDEST SWAP3 SWAP4 PUSH1 0x20 PUSH1 0x1 DUP2 SWAP3 DUP8 DUP7 ADD MLOAD DUP2 SSTORE ADD SWAP6 ADD SWAP4 ADD PUSH2 0x568 JUMP JUMPDEST SWAP1 SWAP2 POP DUP4 PUSH1 0x0 MSTORE PUSH1 0x20 PUSH1 0x0 KECCAK256 PUSH1 0x1F DUP5 ADD PUSH1 0x5 SHR DUP2 ADD SWAP2 PUSH1 0x20 DUP6 LT PUSH2 0x605 JUMPI JUMPDEST SWAP1 PUSH1 0x1F DUP6 SWAP5 SWAP4 SWAP3 ADD PUSH1 0x5 SHR ADD SWAP1 JUMPDEST DUP2 DUP2 LT PUSH2 0x5F6 JUMPI POP PUSH2 0x22A JUMP JUMPDEST PUSH1 0x0 DUP2 SSTORE DUP5 SWAP4 POP PUSH1 0x1 ADD PUSH2 0x5E9 JUMP JUMPDEST SWAP1 SWAP2 POP DUP2 SWAP1 PUSH2 0x5DB JUMP JUMPDEST PUSH1 0x1 SLOAD SWAP11 SWAP10 SWAP9 SWAP8 SWAP7 SWAP6 SWAP5 SWAP4 SWAP3 SWAP2 SWAP1 PUSH1 0x0 JUMPDEST DUP13 DUP2 LT PUSH2 0x63D JUMPI JUMPDEST POP PUSH2 0x167 SWAP2 SWAP3 SWAP4 SWAP5 SWAP6 SWAP7 SWAP8 SWAP9 SWAP10 SWAP11 SWAP12 POP PUSH2 0x1A1E JUMP JUMPDEST PUSH2 0x646 DUP2 PUSH2 0x1735 JUMP JUMPDEST SWAP1 SLOAD CALLER PUSH1 0x3 SWAP3 SWAP1 SWAP3 SHL SHR PUSH1 0x1 PUSH1 0x1 PUSH1 0xA0 SHL SUB AND EQ PUSH2 0x666 JUMPI PUSH1 0x1 ADD PUSH2 0x620 JUMP JUMPDEST POP SWAP10 SWAP11 POP DUP11 SWAP10 POP PUSH1 0x1 PUSH2 0x167 PUSH2 0x628 JUMP JUMPDEST PUSH1 0x0 DUP1 REVERT JUMPDEST CALLVALUE PUSH2 0x677 JUMPI PUSH1 0x20 CALLDATASIZE PUSH1 0x3 NOT ADD SLT PUSH2 0x677 JUMPI PUSH1 0x4 CALLDATALOAD PUSH1 0x0 MSTORE PUSH1 0x3 PUSH1 0x20 MSTORE PUSH1 0x40 PUSH1 0x0 KECCAK256 DUP1 SLOAD SWAP1 PUSH2 0x6E7 PUSH2 0x6AF PUSH1 0x1 DUP4 ADD PUSH2 0x18EB JUMP JUMPDEST SWAP2 PUSH1 0x2 DUP2 ADD SLOAD SWAP1 PUSH2 0x6CE PUSH1 0x4 PUSH2 0x6C7 PUSH1 0x3 DUP5 ADD PUSH2 0x18EB JUMP JUMPDEST SWAP3 ADD PUSH2 0x18EB JUMP JUMPDEST SWAP2 PUSH1 0x40 MLOAD SWAP6 DUP7 SWAP6 PUSH2 0xFFFF DUP1 DUP5 PUSH1 0x10 SHR AND SWAP4 AND SWAP2 DUP8 PUSH2 0x16E3 JUMP JUMPDEST SUB SWAP1 RETURN JUMPDEST CALLVALUE PUSH2 0x677 JUMPI PUSH1 0x20 CALLDATASIZE PUSH1 0x3 NOT ADD SLT PUSH2 0x677 JUMPI PUSH1 0x4 CALLDATALOAD PUSH1 0x1 PUSH1 0x1 PUSH1 0xA0 SHL SUB DUP2 AND DUP2 SUB PUSH2 0x677 JUMPI PUSH2 0x72D SWAP1 PUSH2 0x728 PUSH1 0x1 DUP1 PUSH1 0xA0 SHL SUB PUSH1 0x0 SLOAD AND CALLER EQ PUSH2 0x1BC9 JUMP JUMPDEST PUSH2 0x1D7D JUMP JUMPDEST STOP JUMPDEST CALLVALUE PUSH2 0x677 JUMPI PUSH1 0x20 CALLDATASIZE PUSH1 0x3 NOT ADD SLT PUSH2 0x677 JUMPI PUSH1 0x4 CALLDATALOAD PUSH1 0x1 PUSH1 0x1 PUSH1 0xA0 SHL SUB DUP2 AND DUP2 SUB PUSH2 0x677 JUMPI PUSH2 0x72D SWAP1 PUSH2 0x76C PUSH1 0x1 DUP1 PUSH1 0xA0 SHL SUB PUSH1 0x0 SLOAD AND CALLER EQ PUSH2 0x1BC9 JUMP JUMPDEST PUSH2 0x1C1F JUMP JUMPDEST CALLVALUE PUSH2 0x677 JUMPI PUSH1 0xC0 CALLDATASIZE PUSH1 0x3 NOT ADD SLT PUSH2 0x677 JUMPI PUSH1 0x4 CALLDATALOAD PUSH1 0x1 PUSH1 0x1 PUSH1 0x40 SHL SUB DUP2 GT PUSH2 0x677 JUMPI PUSH2 0x7A1 SWAP1 CALLDATASIZE SWAP1 PUSH1 0x4 ADD PUSH2 0x1881 JUMP JUMPDEST PUSH2 0x220 MSTORE PUSH1 0x24 CALLDATALOAD PUSH1 0x1 PUSH1 0x1 PUSH1 0x40 SHL SUB DUP2 GT PUSH2 0x677 JUMPI PUSH2 0x7C4 SWAP1 CALLDATASIZE SWAP1 PUSH1 0x4 ADD PUSH2 0x1881 JUMP JUMPDEST PUSH2 0x1C0 MSTORE PUSH1 0x44 CALLDATALOAD PUSH1 0x1 PUSH1 0x1 PUSH1 0x40 SHL SUB DUP2 GT PUSH2 0x677 JUMPI PUSH2 0x7E7 SWAP1 CALLDATASIZE SWAP1 PUSH1 0x4 ADD PUSH2 0x1881 JUMP JUMPDEST PUSH2 0x1A0 MSTORE PUSH2 0x180 MSTORE PUSH1 0x64 CALLDATALOAD PUSH1 0x1 PUSH1 0x1 PUSH1 0x40 SHL SUB DUP2 GT PUSH2 0x677 JUMPI PUSH2 0x80E SWAP1 CALLDATASIZE SWAP1 PUSH1 0x4 ADD PUSH2 0x1881 JUMP JUMPDEST PUSH2 0x260 MSTORE PUSH2 0x120 MSTORE PUSH1 0x84 CALLDATALOAD PUSH1 0x1 PUSH1 0x1 PUSH1 0x40 SHL SUB DUP2 GT PUSH2 0x677 JUMPI PUSH2 0x835 SWAP1 CALLDATASIZE SWAP1 PUSH1 0x4 ADD PUSH2 0x1881 JUMP JUMPDEST SWAP1 PUSH2 0x1E0 MSTORE SWAP1 PUSH1 0xA4 CALLDATALOAD PUSH1 0x1 PUSH1 0x1 PUSH1 0x40 SHL SUB DUP2 GT PUSH2 0x677 JUMPI PUSH2 0x85A SWAP1 CALLDATASIZE SWAP1 PUSH1 0x4 ADD PUSH2 0x1881 JUMP JUMPDEST PUSH2 0x160 MSTORE PUSH2 0x140 MSTORE PUSH1 0x0 DUP1 SLOAD CALLER PUSH1 0x1 PUSH1 0x1 PUSH1 0xA0 SHL SUB SWAP1 SWAP2 AND SUB PUSH2 0x1042 JUMPI POP PUSH2 0x882 PUSH1 0x1 PUSH2 0x1A1E JUMP JUMPDEST PUSH2 0x1C0 MLOAD PUSH2 0x220 MLOAD EQ DUP1 PUSH2 0x1033 JUMPI JUMPDEST DUP1 PUSH2 0x1024 JUMPI JUMPDEST DUP1 PUSH2 0x1018 JUMPI JUMPDEST DUP1 PUSH2 0x1009 JUMPI JUMPDEST ISZERO PUSH2 0xFC4 JUMPI PUSH2 0x220 MLOAD ISZERO PUSH2 0xF87 JUMPI PUSH1 0x64 PUSH2 0x220 MLOAD GT PUSH2 0xF4B JUMPI DUP3 CALLDATALOAD PUSH2 0x200 MSTORE PUSH2 0x200 MLOAD PUSH2 0x240 MSTORE PUSH1 0x0 JUMPDEST PUSH2 0x220 MLOAD DUP2 LT PUSH2 0x92A JUMPI PUSH2 0x8E6 PUSH2 0x220 MLOAD PUSH1 0x2 SLOAD PUSH2 0x19B4 JUMP JUMPDEST PUSH1 0x2 SSTORE PUSH32 0x5EF6C1FA8C7E1363D7F137AF202AEEA6D7027F2DD5B96CF545072D94A1E335D5 PUSH1 0x60 PUSH1 0x40 MLOAD PUSH2 0x220 MLOAD DUP2 MSTORE PUSH2 0x200 MLOAD PUSH1 0x20 DUP3 ADD MSTORE PUSH2 0x240 MLOAD PUSH1 0x40 DUP3 ADD MSTORE LOG1 STOP JUMPDEST PUSH2 0x944 PUSH2 0x93B DUP3 PUSH2 0x1C0 MLOAD DUP6 PUSH2 0x1A7A JUMP JUMPDEST SWAP1 POP ISZERO ISZERO PUSH2 0x1ABB JUMP JUMPDEST PUSH2 0x976 PUSH1 0xFF PUSH1 0x20 PUSH2 0x959 DUP5 PUSH2 0x1C0 MLOAD DUP8 PUSH2 0x1A7A JUMP JUMPDEST SWAP2 SWAP1 DUP3 PUSH1 0x40 MLOAD SWAP4 DUP5 SWAP3 DUP4 CALLDATACOPY DUP2 ADD PUSH1 0x4 DUP2 MSTORE SUB ADD SWAP1 KECCAK256 SLOAD AND ISZERO PUSH2 0x1B07 JUMP JUMPDEST PUSH2 0x200 MLOAD PUSH2 0x988 DUP3 PUSH2 0x220 MLOAD DUP8 PUSH2 0x1A6A JUMP JUMPDEST CALLDATALOAD LT PUSH2 0xF33 JUMPI JUMPDEST PUSH2 0x240 MLOAD PUSH2 0x9A1 DUP3 PUSH2 0x220 MLOAD DUP8 PUSH2 0x1A6A JUMP JUMPDEST CALLDATALOAD GT PUSH2 0xF1B JUMPI JUMPDEST PUSH2 0x9B6 DUP2 PUSH2 0x220 MLOAD DUP7 PUSH2 0x1A6A JUMP JUMPDEST CALLDATALOAD PUSH2 0xA73 PUSH2 0x9C8 DUP4 PUSH2 0x1C0 MLOAD DUP7 PUSH2 0x1A7A JUMP JUMPDEST SWAP1 PUSH2 0x9E2 PUSH2 0x9DD DUP7 PUSH2 0x1A0 MLOAD PUSH2 0x180 MLOAD PUSH2 0x1A6A JUMP JUMPDEST PUSH2 0x1B5F JUMP JUMPDEST PUSH2 0x100 MSTORE PUSH2 0xA67 PUSH2 0x9FD PUSH2 0x9DD DUP8 PUSH2 0x260 MLOAD PUSH2 0x120 MLOAD PUSH2 0x1A6A JUMP JUMPDEST PUSH2 0xFFFF PUSH2 0xA0E DUP9 DUP12 PUSH2 0x1E0 MLOAD PUSH2 0x1A7A JUMP JUMPDEST SWAP2 SWAP1 SWAP3 PUSH2 0xA3E PUSH2 0xA25 DUP12 PUSH2 0x160 MLOAD PUSH2 0x140 MLOAD PUSH2 0x1A7A JUMP JUMPDEST SWAP8 SWAP1 SWAP9 PUSH1 0x40 MLOAD SWAP12 PUSH2 0xA35 DUP14 PUSH2 0x17D2 JUMP JUMPDEST DUP13 MSTORE CALLDATASIZE SWAP2 PUSH2 0x180E JUMP JUMPDEST PUSH1 0xE0 MSTORE PUSH1 0x20 DUP10 ADD PUSH1 0xC0 MSTORE PUSH1 0xE0 MLOAD PUSH1 0xC0 MLOAD MSTORE DUP2 PUSH2 0x100 MLOAD AND PUSH1 0x40 DUP11 ADD MSTORE AND PUSH1 0x60 DUP9 ADD MSTORE CALLDATASIZE SWAP2 PUSH2 0x180E JUMP JUMPDEST PUSH1 0x80 DUP6 ADD MSTORE CALLDATASIZE SWAP2 PUSH2 0x180E JUMP JUMPDEST PUSH1 0xA0 DUP3 ADD MSTORE PUSH2 0xA84 DUP3 PUSH1 0x2 SLOAD PUSH2 0x19B4 JUMP JUMPDEST PUSH1 0x0 MSTORE PUSH1 0x3 PUSH1 0x20 MSTORE PUSH1 0x40 PUSH1 0x0 KECCAK256 PUSH1 0xA0 MSTORE DUP1 MLOAD PUSH1 0xA0 MLOAD SSTORE PUSH1 0xC0 MLOAD MLOAD DUP1 MLOAD SWAP1 PUSH1 0x1 PUSH1 0x1 PUSH1 0x40 SHL SUB DUP3 GT PUSH2 0x478 JUMPI DUP2 SWAP1 PUSH2 0xAC0 PUSH1 0x1 PUSH1 0xA0 MLOAD ADD SLOAD PUSH2 0x18B1 JUMP JUMPDEST PUSH1 0x1F DUP2 GT PUSH2 0xEC6 JUMPI JUMPDEST POP PUSH1 0x20 SWAP1 PUSH1 0x1F DUP4 GT PUSH1 0x1 EQ PUSH2 0xE51 JUMPI PUSH1 0x0 SWAP3 PUSH2 0xE46 JUMPI JUMPDEST POP POP DUP2 PUSH1 0x1 SHL SWAP2 PUSH1 0x0 NOT SWAP1 PUSH1 0x3 SHL SHR NOT AND OR PUSH1 0x1 PUSH1 0xA0 MLOAD ADD SSTORE JUMPDEST PUSH1 0x2 PUSH1 0xA0 MLOAD ADD PUSH2 0xFFFF PUSH1 0x40 DUP4 ADD MLOAD AND DUP2 SLOAD SWAP1 PUSH4 0xFFFF0000 PUSH1 0x60 DUP6 ADD MLOAD PUSH1 0x10 SHL AND SWAP2 PUSH4 0xFFFFFFFF NOT AND OR OR SWAP1 SSTORE PUSH1 0x80 DUP2 ADD MLOAD PUSH1 0x80 MSTORE PUSH1 0x80 MLOAD MLOAD PUSH1 0x1 PUSH1 0x1 PUSH1 0x40 SHL SUB DUP2 GT PUSH2 0x478 JUMPI PUSH2 0xB4F PUSH1 0x3 PUSH1 0xA0 MLOAD ADD SLOAD PUSH2 0x18B1 JUMP JUMPDEST PUSH1 0x1F DUP2 GT PUSH2 0xDFD JUMPI JUMPDEST POP PUSH1 0x20 PUSH1 0x1F DUP3 GT PUSH1 0x1 EQ PUSH2 0xD87 JUMPI SWAP1 DUP1 PUSH1 0xA0 SWAP4 SWAP3 PUSH1 0x0 SWAP2 PUSH2 0xD7A JUMPI JUMPDEST POP DUP2 PUSH1 0x1 SHL SWAP2 PUSH1 0x0 NOT SWAP1 PUSH1 0x3 SHL SHR NOT AND OR PUSH1 0x3 DUP4 MLOAD ADD SSTORE JUMPDEST ADD MLOAD DUP1 MLOAD SWAP1 PUSH1 0x1 PUSH1 0x1 PUSH1 0x40 SHL SUB DUP3 GT PUSH2 0x478 JUMPI PUSH2 0xBAE PUSH1 0x4 PUSH1 0xA0 MLOAD ADD SLOAD PUSH2 0x18B1 JUMP JUMPDEST PUSH1 0x1F DUP2 GT PUSH2 0xD31 JUMPI JUMPDEST POP PUSH1 0x20 SWAP1 PUSH1 0x1F DUP4 GT PUSH1 0x1 EQ PUSH2 0xCBB JUMPI PUSH1 0x1 SWAP4 SWAP3 SWAP2 PUSH1 0x0 SWAP2 DUP4 PUSH2 0xCB0 JUMPI JUMPDEST POP POP DUP2 DUP5 SHL SWAP2 PUSH1 0x0 NOT SWAP1 PUSH1 0x3 SHL SHR NOT AND OR PUSH1 0x4 PUSH1 0xA0 MLOAD ADD SSTORE JUMPDEST PUSH1 0x20 PUSH2 0xBFD DUP3 PUSH2 0x1C0 MLOAD DUP7 PUSH2 0x1A7A JUMP JUMPDEST SWAP2 SWAP1 DUP3 PUSH1 0x40 MLOAD SWAP4 DUP5 SWAP3 DUP4 CALLDATACOPY DUP2 ADD PUSH1 0x4 DUP2 MSTORE SUB ADD SWAP1 KECCAK256 DUP3 PUSH1 0xFF NOT DUP3 SLOAD AND OR SWAP1 SSTORE PUSH2 0xC2A DUP2 PUSH2 0x220 MLOAD DUP8 PUSH2 0x1A6A JUMP JUMPDEST CALLDATALOAD PUSH32 0x98C8159409888D0E18AA2B51F47B8635504232A3C0E9B170631C0804572DDE14 PUSH2 0xC5A DUP4 PUSH2 0x1C0 MLOAD DUP8 PUSH2 0x1A7A JUMP JUMPDEST SWAP1 PUSH2 0xCA7 PUSH2 0xC72 PUSH2 0x9DD DUP8 PUSH2 0x1A0 MLOAD PUSH2 0x180 MLOAD PUSH2 0x1A6A JUMP JUMPDEST PUSH2 0xC86 PUSH2 0x9DD DUP9 PUSH2 0x260 MLOAD PUSH2 0x120 MLOAD PUSH2 0x1A6A JUMP JUMPDEST SWAP1 PUSH2 0xC98 DUP9 PUSH2 0x160 MLOAD PUSH2 0x140 MLOAD PUSH2 0x1A7A JUMP JUMPDEST SWAP3 SWAP1 SWAP2 PUSH1 0x40 MLOAD SWAP7 DUP8 SWAP7 DUP8 PUSH2 0x1B8F JUMP JUMPDEST SUB SWAP1 LOG2 ADD PUSH2 0x8CD JUMP JUMPDEST ADD MLOAD SWAP1 POP DUP8 DUP1 PUSH2 0xBD4 JUMP JUMPDEST SWAP1 PUSH1 0x4 PUSH1 0xA0 MLOAD ADD PUSH1 0x0 MSTORE DUP1 PUSH1 0x0 KECCAK256 SWAP2 PUSH1 0x0 JUMPDEST PUSH1 0x1F NOT DUP6 AND DUP2 LT PUSH2 0xD19 JUMPI POP SWAP2 DUP4 SWAP2 PUSH1 0x1 SWAP6 SWAP5 SWAP4 DUP7 SWAP5 PUSH1 0x1F NOT DUP2 AND LT PUSH2 0xD00 JUMPI JUMPDEST POP POP POP DUP2 SHL ADD PUSH1 0x4 PUSH1 0xA0 MLOAD ADD SSTORE PUSH2 0xBED JUMP JUMPDEST ADD MLOAD PUSH1 0x0 NOT PUSH1 0xF8 DUP5 PUSH1 0x3 SHL AND SHR NOT AND SWAP1 SSTORE DUP8 DUP1 DUP1 PUSH2 0xCEE JUMP JUMPDEST SWAP2 SWAP3 PUSH1 0x20 PUSH1 0x1 DUP2 SWAP3 DUP7 DUP6 ADD MLOAD DUP2 SSTORE ADD SWAP5 ADD SWAP3 ADD PUSH2 0xCCD JUMP JUMPDEST PUSH1 0x4 PUSH1 0xA0 MLOAD ADD PUSH1 0x0 MSTORE PUSH1 0x20 PUSH1 0x0 KECCAK256 PUSH1 0x1F DUP5 ADD PUSH1 0x5 SHR DUP2 ADD PUSH1 0x20 DUP6 LT PUSH2 0xD73 JUMPI JUMPDEST PUSH1 0x1F DUP4 ADD PUSH1 0x5 SHR DUP3 ADD DUP2 LT PUSH2 0xD67 JUMPI POP POP PUSH2 0xBB7 JUMP JUMPDEST PUSH1 0x0 DUP2 SSTORE PUSH1 0x1 ADD PUSH2 0xD51 JUMP JUMPDEST POP DUP1 PUSH2 0xD51 JUMP JUMPDEST SWAP1 POP PUSH1 0x80 MLOAD ADD MLOAD DUP9 PUSH2 0xB74 JUMP JUMPDEST PUSH1 0x3 PUSH1 0xA0 MLOAD ADD PUSH1 0x0 MSTORE DUP1 PUSH1 0x0 KECCAK256 SWAP1 PUSH1 0x0 JUMPDEST PUSH1 0x1F NOT DUP5 AND DUP2 LT PUSH2 0xDE3 JUMPI POP SWAP2 PUSH1 0x1 SWAP2 PUSH1 0xA0 SWAP5 SWAP4 DUP3 PUSH1 0x1F NOT DUP2 AND LT PUSH2 0xDC8 JUMPI JUMPDEST POP POP DUP2 SHL ADD PUSH1 0x3 DUP4 MLOAD ADD SSTORE PUSH2 0xB8C JUMP JUMPDEST PUSH1 0x80 MLOAD ADD MLOAD PUSH1 0x0 NOT PUSH1 0xF8 DUP5 PUSH1 0x3 SHL AND SHR NOT AND SWAP1 SSTORE DUP9 DUP1 PUSH2 0xDB8 JUMP JUMPDEST SWAP1 SWAP2 PUSH1 0x20 PUSH1 0x1 DUP2 SWAP3 DUP6 PUSH1 0x80 MLOAD ADD MLOAD DUP2 SSTORE ADD SWAP4 ADD SWAP2 ADD PUSH2 0xD98 JUMP JUMPDEST PUSH1 0x3 PUSH1 0xA0 MLOAD ADD PUSH1 0x0 MSTORE PUSH1 0x20 PUSH1 0x0 KECCAK256 PUSH1 0x1F DUP4 ADD PUSH1 0x5 SHR DUP2 ADD PUSH1 0x20 DUP5 LT PUSH2 0xE3F JUMPI JUMPDEST PUSH1 0x1F DUP4 ADD PUSH1 0x5 SHR DUP3 ADD DUP2 LT PUSH2 0xE33 JUMPI POP POP PUSH2 0xB58 JUMP JUMPDEST PUSH1 0x0 DUP2 SSTORE PUSH1 0x1 ADD PUSH2 0xE1D JUMP JUMPDEST POP DUP1 PUSH2 0xE1D JUMP JUMPDEST ADD MLOAD SWAP1 POP DUP8 DUP1 PUSH2 0xAE0 JUMP JUMPDEST SWAP3 POP PUSH1 0x1 PUSH1 0xA0 MLOAD ADD PUSH1 0x0 MSTORE DUP1 PUSH1 0x0 KECCAK256 SWAP1 PUSH1 0x0 SWAP4 JUMPDEST PUSH1 0x1F NOT DUP5 AND DUP6 LT PUSH2 0xEAB JUMPI PUSH1 0x1 SWAP5 POP DUP4 PUSH1 0x1F NOT DUP2 AND LT PUSH2 0xE92 JUMPI JUMPDEST POP POP POP DUP2 SHL ADD PUSH1 0x1 PUSH1 0xA0 MLOAD ADD SSTORE PUSH2 0xAFA JUMP JUMPDEST ADD MLOAD PUSH1 0x0 NOT PUSH1 0xF8 DUP5 PUSH1 0x3 SHL AND SHR NOT AND SWAP1 SSTORE DUP8 DUP1 DUP1 PUSH2 0xE80 JUMP JUMPDEST DUP2 DUP2 ADD MLOAD DUP4 SSTORE PUSH1 0x20 SWAP5 DUP6 ADD SWAP5 PUSH1 0x1 SWAP1 SWAP4 ADD SWAP3 SWAP1 SWAP2 ADD SWAP1 PUSH2 0xE65 JUMP JUMPDEST SWAP1 SWAP2 POP PUSH1 0x1 PUSH1 0xA0 MLOAD ADD PUSH1 0x0 MSTORE PUSH1 0x20 PUSH1 0x0 KECCAK256 PUSH1 0x1F DUP5 ADD PUSH1 0x5 SHR DUP2 ADD PUSH1 0x20 DUP6 LT PUSH2 0xF14 JUMPI JUMPDEST SWAP1 DUP5 SWAP4 SWAP3 SWAP2 JUMPDEST PUSH1 0x1F DUP4 ADD PUSH1 0x5 SHR DUP3 ADD DUP2 LT PUSH2 0xF05 JUMPI POP POP PUSH2 0xAC9 JUMP JUMPDEST PUSH1 0x0 DUP2 SSTORE DUP6 SWAP5 POP PUSH1 0x1 ADD PUSH2 0xEEF JUMP JUMPDEST POP DUP1 PUSH2 0xEE9 JUMP JUMPDEST PUSH2 0xF29 DUP2 PUSH2 0x220 MLOAD DUP7 PUSH2 0x1A6A JUMP JUMPDEST CALLDATALOAD PUSH2 0x240 MSTORE PUSH2 0x9A8 JUMP JUMPDEST PUSH2 0xF41 DUP2 PUSH2 0x220 MLOAD DUP7 PUSH2 0x1A6A JUMP JUMPDEST CALLDATALOAD PUSH2 0x200 MSTORE PUSH2 0x98F JUMP JUMPDEST PUSH1 0x40 MLOAD PUSH3 0x461BCD PUSH1 0xE5 SHL DUP2 MSTORE PUSH1 0x20 PUSH1 0x4 DUP3 ADD MSTORE PUSH1 0x14 PUSH1 0x24 DUP3 ADD MSTORE PUSH20 0x42617463682073697A6520746F6F206C61726765 PUSH1 0x60 SHL PUSH1 0x44 DUP3 ADD MSTORE PUSH1 0x64 SWAP1 REVERT JUMPDEST PUSH1 0x40 MLOAD PUSH3 0x461BCD PUSH1 0xE5 SHL DUP2 MSTORE PUSH1 0x20 PUSH1 0x4 DUP3 ADD MSTORE PUSH1 0x15 PUSH1 0x24 DUP3 ADD MSTORE PUSH21 0x42617463682063616E6E6F7420626520656D707479 PUSH1 0x58 SHL PUSH1 0x44 DUP3 ADD MSTORE PUSH1 0x64 SWAP1 REVERT JUMPDEST PUSH1 0x40 MLOAD PUSH3 0x461BCD PUSH1 0xE5 SHL DUP2 MSTORE PUSH1 0x20 PUSH1 0x4 DUP3 ADD MSTORE PUSH1 0x1A PUSH1 0x24 DUP3 ADD MSTORE PUSH32 0x4172726179206C656E6774687320646F206E6F74206D61746368000000000000 PUSH1 0x44 DUP3 ADD MSTORE PUSH1 0x64 SWAP1 REVERT JUMPDEST POP PUSH2 0x160 MLOAD PUSH2 0x220 MLOAD EQ PUSH2 0x8A3 JUMP JUMPDEST POP DUP2 PUSH2 0x220 MLOAD EQ PUSH2 0x89D JUMP JUMPDEST POP PUSH2 0x260 MLOAD PUSH2 0x220 MLOAD EQ PUSH2 0x897 JUMP JUMPDEST POP PUSH2 0x1A0 MLOAD PUSH2 0x220 MLOAD EQ PUSH2 0x891 JUMP JUMPDEST PUSH1 0x1 SLOAD SWAP3 SWAP2 SWAP1 PUSH1 0x0 JUMPDEST DUP5 DUP2 LT PUSH2 0x1060 JUMPI JUMPDEST POP PUSH2 0x882 SWAP2 SWAP3 SWAP4 POP PUSH2 0x1A1E JUMP JUMPDEST PUSH2 0x1069 DUP2 PUSH2 0x1735 JUMP JUMPDEST SWAP1 SLOAD CALLER PUSH1 0x3 SWAP3 SWAP1 SWAP3 SHL SHR PUSH1 0x1 PUSH1 0x1 PUSH1 0xA0 SHL SUB AND EQ PUSH2 0x1089 JUMPI PUSH1 0x1 ADD PUSH2 0x104B JUMP JUMPDEST POP SWAP2 SWAP3 POP DUP3 SWAP2 POP PUSH1 0x1 PUSH2 0x882 PUSH2 0x1053 JUMP JUMPDEST CALLVALUE PUSH2 0x677 JUMPI PUSH1 0x20 CALLDATASIZE PUSH1 0x3 NOT ADD SLT PUSH2 0x677 JUMPI PUSH1 0x4 CALLDATALOAD PUSH1 0x1 PUSH1 0x1 PUSH1 0x40 SHL SUB DUP2 GT PUSH2 0x677 JUMPI PUSH1 0xFF PUSH1 0x20 PUSH2 0x10CF DUP2 SWAP4 CALLDATASIZE SWAP1 PUSH1 0x4 ADD PUSH2 0x1854 JUMP JUMPDEST SWAP2 SWAP1 DUP3 PUSH1 0x40 MLOAD SWAP4 DUP5 SWAP3 DUP4 CALLDATACOPY DUP2 ADD PUSH1 0x4 DUP2 MSTORE SUB ADD SWAP1 KECCAK256 SLOAD AND PUSH1 0x40 MLOAD SWAP1 ISZERO ISZERO DUP2 MSTORE RETURN JUMPDEST CALLVALUE PUSH2 0x677 JUMPI PUSH1 0x20 CALLDATASIZE PUSH1 0x3 NOT ADD SLT PUSH2 0x677 JUMPI PUSH1 0x4 CALLDATALOAD PUSH1 0x1 PUSH1 0x1 PUSH1 0x40 SHL SUB DUP2 GT PUSH2 0x677 JUMPI CALLDATASIZE PUSH1 0x23 DUP3 ADD SLT ISZERO PUSH2 0x677 JUMPI PUSH1 0xFF PUSH2 0x114C PUSH1 0x20 PUSH2 0x1139 DUP2 SWAP5 CALLDATASIZE SWAP1 PUSH1 0x24 DUP2 PUSH1 0x4 ADD CALLDATALOAD SWAP2 ADD PUSH2 0x180E JUMP JUMPDEST DUP2 PUSH1 0x40 MLOAD SWAP4 DUP3 DUP6 DUP1 SWAP5 MLOAD SWAP4 DUP5 SWAP3 ADD PUSH2 0x169B JUMP JUMPDEST DUP2 ADD PUSH1 0x4 DUP2 MSTORE SUB ADD SWAP1 KECCAK256 SLOAD AND PUSH1 0x40 MLOAD SWAP1 ISZERO ISZERO DUP2 MSTORE RETURN JUMPDEST CALLVALUE PUSH2 0x677 JUMPI PUSH1 0x0 CALLDATASIZE PUSH1 0x3 NOT ADD SLT PUSH2 0x677 JUMPI PUSH1 0x0 SLOAD PUSH1 0x40 MLOAD PUSH1 0x1 PUSH1 0x1 PUSH1 0xA0 SHL SUB SWAP1 SWAP2 AND DUP2 MSTORE PUSH1 0x20 SWAP1 RETURN JUMPDEST CALLVALUE PUSH2 0x677 JUMPI PUSH1 0x0 CALLDATASIZE PUSH1 0x3 NOT ADD SLT PUSH2 0x677 JUMPI PUSH1 0x20 PUSH1 0x2 SLOAD PUSH1 0x40 MLOAD SWAP1 DUP2 MSTORE RETURN JUMPDEST CALLVALUE PUSH2 0x677 JUMPI PUSH1 0x0 CALLDATASIZE PUSH1 0x3 NOT ADD SLT PUSH2 0x677 JUMPI PUSH1 0x20 PUSH1 0x1 SLOAD PUSH1 0x40 MLOAD SWAP1 DUP2 MSTORE RETURN JUMPDEST CALLVALUE PUSH2 0x677 JUMPI PUSH1 0x80 CALLDATASIZE PUSH1 0x3 NOT ADD SLT PUSH2 0x677 JUMPI PUSH1 0x64 CALLDATALOAD PUSH1 0x44 CALLDATALOAD PUSH1 0x4 CALLDATALOAD PUSH1 0x24 CALLDATALOAD DUP1 DUP3 GT PUSH2 0x152F JUMPI PUSH1 0x64 DUP4 GT PUSH2 0x14F8 JUMPI PUSH1 0x0 SWAP1 DUP2 SWAP3 DUP3 PUSH1 0x2 SLOAD SWAP1 JUMPDEST DUP2 DUP2 LT DUP1 PUSH2 0x14E6 JUMPI JUMPDEST ISZERO PUSH2 0x1281 JUMPI DUP1 PUSH1 0x0 MSTORE PUSH1 0x3 PUSH1 0x20 MSTORE DUP3 PUSH1 0x40 PUSH1 0x0 KECCAK256 SLOAD LT ISZERO DUP1 PUSH2 0x1269 JUMPI JUMPDEST PUSH2 0x1237 JUMPI JUMPDEST PUSH2 0x1232 SWAP1 PUSH2 0x198F JUMP JUMPDEST PUSH2 0x11FE JUMP JUMPDEST SWAP5 DUP8 DUP2 LT ISZERO PUSH2 0x1255 JUMPI PUSH2 0x124C PUSH2 0x1232 SWAP2 PUSH2 0x198F JUMP JUMPDEST SWAP6 JUMPDEST SWAP1 POP PUSH2 0x1229 JUMP JUMPDEST SWAP5 SWAP4 PUSH2 0x1263 PUSH2 0x1232 SWAP2 PUSH2 0x198F JUMP JUMPDEST SWAP5 PUSH2 0x124E JUMP JUMPDEST POP DUP1 PUSH1 0x0 MSTORE PUSH1 0x3 PUSH1 0x20 MSTORE DUP4 PUSH1 0x40 PUSH1 0x0 KECCAK256 SLOAD GT ISZERO PUSH2 0x1224 JUMP JUMPDEST POP SWAP5 SWAP2 SWAP4 POP SWAP2 DUP2 DUP2 GT ISZERO PUSH2 0x14DE JUMPI POP SWAP2 JUMPDEST PUSH2 0x129B DUP4 PUSH2 0x19D8 JUMP JUMPDEST SWAP5 PUSH2 0x12A5 DUP5 PUSH2 0x19D8 JUMP JUMPDEST PUSH2 0x12AE DUP6 PUSH2 0x19C1 JUMP JUMPDEST SWAP1 PUSH2 0x12BC PUSH1 0x40 MLOAD SWAP3 DUP4 PUSH2 0x17ED JUMP JUMPDEST DUP6 DUP3 MSTORE PUSH1 0x1F NOT PUSH2 0x12CB DUP8 PUSH2 0x19C1 JUMP JUMPDEST ADD PUSH1 0x0 JUMPDEST DUP2 DUP2 LT PUSH2 0x14CD JUMPI POP POP PUSH2 0x12E1 DUP7 PUSH2 0x19D8 JUMP JUMPDEST SWAP3 PUSH2 0x12EB DUP8 PUSH2 0x19D8 JUMP JUMPDEST SWAP5 PUSH1 0x0 SWAP7 DUP8 SWAP9 DUP9 JUMPDEST DUP12 DUP2 LT DUP1 PUSH2 0x14C4 JUMPI JUMPDEST ISZERO PUSH2 0x1412 JUMPI DUP1 PUSH1 0x0 MSTORE PUSH1 0x3 PUSH1 0x20 MSTORE DUP3 PUSH1 0x40 PUSH1 0x0 KECCAK256 SLOAD LT ISZERO DUP1 PUSH2 0x13FA JUMPI JUMPDEST PUSH2 0x132C JUMPI JUMPDEST PUSH2 0x1327 SWAP1 PUSH2 0x198F JUMP JUMPDEST PUSH2 0x12F3 JUMP JUMPDEST SWAP10 DUP13 DUP6 DUP3 LT ISZERO PUSH2 0x134C JUMPI POP PUSH2 0x1343 PUSH2 0x1327 SWAP2 PUSH2 0x198F JUMP JUMPDEST SWAP11 JUMPDEST SWAP1 POP PUSH2 0x131E JUMP JUMPDEST DUP11 DUP13 PUSH2 0x1360 PUSH2 0x1327 SWAP5 SWAP15 SWAP14 PUSH2 0x13F4 SWAP5 PUSH2 0x1A0A JUMP JUMPDEST MSTORE DUP12 PUSH1 0x0 MSTORE PUSH1 0x3 PUSH1 0x20 MSTORE PUSH1 0x40 PUSH1 0x0 KECCAK256 SLOAD PUSH2 0x137A DUP3 DUP11 PUSH2 0x1A0A JUMP JUMPDEST MSTORE DUP12 PUSH1 0x0 MSTORE PUSH1 0x3 PUSH1 0x20 MSTORE PUSH2 0x1394 PUSH1 0x1 PUSH1 0x40 PUSH1 0x0 KECCAK256 ADD PUSH2 0x18EB JUMP JUMPDEST PUSH2 0x139E DUP3 DUP12 PUSH2 0x1A0A JUMP JUMPDEST MSTORE PUSH2 0x13A9 DUP2 DUP11 PUSH2 0x1A0A JUMP JUMPDEST POP DUP12 PUSH1 0x0 MSTORE PUSH1 0x3 PUSH1 0x20 MSTORE PUSH2 0xFFFF PUSH1 0x2 PUSH1 0x40 PUSH1 0x0 KECCAK256 ADD SLOAD AND PUSH2 0x13CA DUP3 DUP13 PUSH2 0x1A0A JUMP JUMPDEST MSTORE DUP12 PUSH1 0x0 MSTORE PUSH1 0x3 PUSH1 0x20 MSTORE PUSH2 0xFFFF PUSH1 0x2 PUSH1 0x40 PUSH1 0x0 KECCAK256 ADD SLOAD PUSH1 0x10 SHR AND PUSH2 0x13EE DUP3 DUP14 PUSH2 0x1A0A JUMP JUMPDEST MSTORE PUSH2 0x198F JUMP JUMPDEST SWAP10 PUSH2 0x1345 JUMP JUMPDEST POP DUP1 PUSH1 0x0 MSTORE PUSH1 0x3 PUSH1 0x20 MSTORE DUP4 PUSH1 0x40 PUSH1 0x0 KECCAK256 SLOAD GT ISZERO PUSH2 0x1319 JUMP JUMPDEST PUSH2 0x1431 DUP14 DUP11 DUP10 DUP12 PUSH2 0x143F DUP12 PUSH1 0x40 MLOAD SWAP7 DUP8 SWAP7 PUSH1 0xA0 DUP9 MSTORE PUSH1 0xA0 DUP9 ADD SWAP1 PUSH2 0x1766 JUMP JUMPDEST SWAP1 DUP7 DUP3 SUB PUSH1 0x20 DUP9 ADD MSTORE PUSH2 0x1766 JUMP JUMPDEST DUP5 DUP2 SUB PUSH1 0x40 DUP7 ADD MSTORE DUP3 MLOAD DUP1 DUP3 MSTORE PUSH1 0x20 DUP3 ADD SWAP2 PUSH1 0x20 DUP1 DUP4 PUSH1 0x5 SHL DUP4 ADD ADD SWAP6 ADD SWAP3 PUSH1 0x0 SWAP2 JUMPDEST DUP4 DUP4 LT PUSH2 0x148F JUMPI DUP9 DUP1 PUSH2 0x6E7 DUP11 PUSH2 0x1481 DUP12 DUP12 DUP6 DUP3 SUB PUSH1 0x60 DUP8 ADD MSTORE PUSH2 0x179A JUMP JUMPDEST SWAP1 DUP4 DUP3 SUB PUSH1 0x80 DUP6 ADD MSTORE PUSH2 0x179A JUMP JUMPDEST SWAP2 SWAP4 SWAP7 SWAP8 POP SWAP2 SWAP4 SWAP5 PUSH1 0x20 DUP1 PUSH2 0x14B0 PUSH1 0x1 SWAP4 PUSH1 0x1F NOT DUP7 DUP3 SUB ADD DUP8 MSTORE DUP11 MLOAD PUSH2 0x16BE JUMP JUMPDEST SWAP9 ADD SWAP4 ADD SWAP4 ADD SWAP1 SWAP3 DUP9 SWAP8 SWAP7 SWAP6 SWAP5 SWAP3 SWAP4 PUSH2 0x1462 JUMP JUMPDEST POP DUP2 DUP11 LT PUSH2 0x12FC JUMP JUMPDEST DUP1 PUSH1 0x60 PUSH1 0x20 DUP1 SWAP4 DUP8 ADD ADD MSTORE ADD PUSH2 0x12CF JUMP JUMPDEST SWAP1 POP SWAP2 PUSH2 0x1292 JUMP JUMPDEST POP PUSH2 0x14F1 DUP9 DUP9 PUSH2 0x19B4 JUMP JUMPDEST DUP6 LT PUSH2 0x1207 JUMP JUMPDEST PUSH1 0x40 MLOAD PUSH3 0x461BCD PUSH1 0xE5 SHL DUP2 MSTORE PUSH1 0x20 PUSH1 0x4 DUP3 ADD MSTORE PUSH1 0xF PUSH1 0x24 DUP3 ADD MSTORE PUSH15 0x4C696D697420746F6F206C61726765 PUSH1 0x88 SHL PUSH1 0x44 DUP3 ADD MSTORE PUSH1 0x64 SWAP1 REVERT JUMPDEST PUSH1 0x40 MLOAD PUSH3 0x461BCD PUSH1 0xE5 SHL DUP2 MSTORE PUSH1 0x20 PUSH1 0x4 DUP3 ADD MSTORE PUSH1 0x12 PUSH1 0x24 DUP3 ADD MSTORE PUSH18 0x496E76616C69642074696D652072616E6765 PUSH1 0x70 SHL PUSH1 0x44 DUP3 ADD MSTORE PUSH1 0x64 SWAP1 REVERT JUMPDEST CALLVALUE PUSH2 0x677 JUMPI PUSH1 0x20 CALLDATASIZE PUSH1 0x3 NOT ADD SLT PUSH2 0x677 JUMPI PUSH1 0x4 CALLDATALOAD PUSH1 0x1 SLOAD DUP2 LT ISZERO PUSH2 0x677 JUMPI PUSH2 0x1592 PUSH1 0x20 SWAP2 PUSH2 0x1735 JUMP JUMPDEST SWAP1 SLOAD PUSH1 0x40 MLOAD PUSH1 0x3 SWAP3 SWAP1 SWAP3 SHL SHR PUSH1 0x1 PUSH1 0x1 PUSH1 0xA0 SHL SUB AND DUP2 MSTORE RETURN JUMPDEST CALLVALUE PUSH2 0x677 JUMPI PUSH1 0x20 CALLDATASIZE PUSH1 0x3 NOT ADD SLT PUSH2 0x677 JUMPI PUSH1 0x4 CALLDATALOAD SWAP1 PUSH1 0x2 SLOAD DUP3 LT ISZERO PUSH2 0x1660 JUMPI POP PUSH1 0x0 MSTORE PUSH1 0x3 PUSH1 0x20 MSTORE PUSH1 0x40 PUSH1 0x0 KECCAK256 PUSH1 0x40 MLOAD PUSH2 0x15E4 DUP2 PUSH2 0x17D2 JUMP JUMPDEST DUP2 SLOAD DUP2 MSTORE PUSH2 0x6E7 PUSH2 0x15F7 PUSH1 0x1 DUP5 ADD PUSH2 0x18EB JUMP JUMPDEST SWAP2 PUSH1 0x20 DUP2 ADD SWAP3 DUP4 MSTORE PUSH1 0x2 DUP5 ADD SLOAD PUSH1 0x40 DUP3 ADD SWAP5 PUSH2 0xFFFF DUP3 AND DUP7 MSTORE PUSH2 0xFFFF PUSH1 0x60 DUP5 ADD SWAP3 PUSH1 0x10 SHR AND DUP3 MSTORE PUSH2 0xFFFF DUP1 PUSH2 0x1641 PUSH1 0x4 PUSH2 0x1633 PUSH1 0x3 DUP7 ADD PUSH2 0x18EB JUMP JUMPDEST SWAP5 PUSH1 0x80 DUP9 ADD SWAP6 DUP7 MSTORE ADD PUSH2 0x18EB JUMP JUMPDEST SWAP5 DUP6 PUSH1 0xA0 DUP3 ADD MSTORE MLOAD SWAP7 MLOAD SWAP8 MLOAD AND SWAP3 MLOAD AND SWAP1 MLOAD SWAP2 PUSH1 0x40 MLOAD SWAP7 DUP8 SWAP7 DUP8 PUSH2 0x16E3 JUMP JUMPDEST PUSH3 0x461BCD PUSH1 0xE5 SHL DUP2 MSTORE PUSH1 0x20 PUSH1 0x4 DUP3 ADD MSTORE PUSH1 0x16 PUSH1 0x24 DUP3 ADD MSTORE PUSH22 0x149958591A5B99C8191BD95CC81B9BDD08195E1A5CDD PUSH1 0x52 SHL PUSH1 0x44 DUP3 ADD MSTORE PUSH1 0x64 SWAP1 REVERT JUMPDEST PUSH1 0x0 JUMPDEST DUP4 DUP2 LT PUSH2 0x16AE JUMPI POP POP PUSH1 0x0 SWAP2 ADD MSTORE JUMP JUMPDEST DUP2 DUP2 ADD MLOAD DUP4 DUP3 ADD MSTORE PUSH1 0x20 ADD PUSH2 0x169E JUMP JUMPDEST SWAP1 PUSH1 0x20 SWAP2 PUSH2 0x16D7 DUP2 MLOAD DUP1 SWAP3 DUP2 DUP6 MSTORE DUP6 DUP1 DUP7 ADD SWAP2 ADD PUSH2 0x169B JUMP JUMPDEST PUSH1 0x1F ADD PUSH1 0x1F NOT AND ADD ADD SWAP1 JUMP JUMPDEST SWAP5 SWAP1 PUSH2 0x1732 SWAP7 SWAP5 PUSH2 0xFFFF PUSH2 0x170A PUSH2 0x1724 SWAP7 SWAP6 DUP3 SWAP5 DUP11 MSTORE PUSH1 0xC0 PUSH1 0x20 DUP12 ADD MSTORE PUSH1 0xC0 DUP11 ADD SWAP1 PUSH2 0x16BE JUMP JUMPDEST SWAP5 AND PUSH1 0x40 DUP9 ADD MSTORE AND PUSH1 0x60 DUP7 ADD MSTORE DUP5 DUP3 SUB PUSH1 0x80 DUP7 ADD MSTORE PUSH2 0x16BE JUMP JUMPDEST SWAP2 PUSH1 0xA0 DUP2 DUP5 SUB SWAP2 ADD MSTORE PUSH2 0x16BE JUMP JUMPDEST SWAP1 JUMP JUMPDEST PUSH1 0x1 SLOAD DUP2 LT ISZERO PUSH2 0x1750 JUMPI PUSH1 0x1 PUSH1 0x0 MSTORE PUSH1 0x20 PUSH1 0x0 KECCAK256 ADD SWAP1 PUSH1 0x0 SWAP1 JUMP JUMPDEST PUSH4 0x4E487B71 PUSH1 0xE0 SHL PUSH1 0x0 MSTORE PUSH1 0x32 PUSH1 0x4 MSTORE PUSH1 0x24 PUSH1 0x0 REVERT JUMPDEST SWAP1 PUSH1 0x20 DUP1 DUP4 MLOAD SWAP3 DUP4 DUP2 MSTORE ADD SWAP3 ADD SWAP1 PUSH1 0x0 JUMPDEST DUP2 DUP2 LT PUSH2 0x1784 JUMPI POP POP POP SWAP1 JUMP JUMPDEST DUP3 MLOAD DUP5 MSTORE PUSH1 0x20 SWAP4 DUP5 ADD SWAP4 SWAP1 SWAP3 ADD SWAP2 PUSH1 0x1 ADD PUSH2 0x1777 JUMP JUMPDEST SWAP1 PUSH1 0x20 DUP1 DUP4 MLOAD SWAP3 DUP4 DUP2 MSTORE ADD SWAP3 ADD SWAP1 PUSH1 0x0 JUMPDEST DUP2 DUP2 LT PUSH2 0x17B8 JUMPI POP POP POP SWAP1 JUMP JUMPDEST DUP3 MLOAD PUSH2 0xFFFF AND DUP5 MSTORE PUSH1 0x20 SWAP4 DUP5 ADD SWAP4 SWAP1 SWAP3 ADD SWAP2 PUSH1 0x1 ADD PUSH2 0x17AB JUMP JUMPDEST PUSH1 0xC0 DUP2 ADD SWAP1 DUP2 LT PUSH1 0x1 PUSH1 0x1 PUSH1 0x40 SHL SUB DUP3 GT OR PUSH2 0x478 JUMPI PUSH1 0x40 MSTORE JUMP JUMPDEST SWAP1 PUSH1 0x1F DUP1 NOT SWAP2 ADD AND DUP2 ADD SWAP1 DUP2 LT PUSH1 0x1 PUSH1 0x1 PUSH1 0x40 SHL SUB DUP3 GT OR PUSH2 0x478 JUMPI PUSH1 0x40 MSTORE JUMP JUMPDEST SWAP3 SWAP2 SWAP3 PUSH1 0x1 PUSH1 0x1 PUSH1 0x40 SHL SUB DUP3 GT PUSH2 0x478 JUMPI PUSH1 0x40 MLOAD SWAP2 PUSH2 0x1837 PUSH1 0x1F DUP3 ADD PUSH1 0x1F NOT AND PUSH1 0x20 ADD DUP5 PUSH2 0x17ED JUMP JUMPDEST DUP3 SWAP5 DUP2 DUP5 MSTORE DUP2 DUP4 ADD GT PUSH2 0x677 JUMPI DUP3 DUP2 PUSH1 0x20 SWAP4 DUP5 PUSH1 0x0 SWAP7 ADD CALLDATACOPY ADD ADD MSTORE JUMP JUMPDEST SWAP2 DUP2 PUSH1 0x1F DUP5 ADD SLT ISZERO PUSH2 0x677 JUMPI DUP3 CALLDATALOAD SWAP2 PUSH1 0x1 PUSH1 0x1 PUSH1 0x40 SHL SUB DUP4 GT PUSH2 0x677 JUMPI PUSH1 0x20 DUP4 DUP2 DUP7 ADD SWAP6 ADD ADD GT PUSH2 0x677 JUMPI JUMP JUMPDEST SWAP2 DUP2 PUSH1 0x1F DUP5 ADD SLT ISZERO PUSH2 0x677 JUMPI DUP3 CALLDATALOAD SWAP2 PUSH1 0x1 PUSH1 0x1 PUSH1 0x40 SHL SUB DUP4 GT PUSH2 0x677 JUMPI PUSH1 0x20 DUP1 DUP6 ADD SWAP5 DUP5 PUSH1 0x5 SHL ADD ADD GT PUSH2 0x677 JUMPI JUMP JUMPDEST SWAP1 PUSH1 0x1 DUP3 DUP2 SHR SWAP3 AND DUP1 ISZERO PUSH2 0x18E1 JUMPI JUMPDEST PUSH1 0x20 DUP4 LT EQ PUSH2 0x18CB JUMPI JUMP JUMPDEST PUSH4 0x4E487B71 PUSH1 0xE0 SHL PUSH1 0x0 MSTORE PUSH1 0x22 PUSH1 0x4 MSTORE PUSH1 0x24 PUSH1 0x0 REVERT JUMPDEST SWAP2 PUSH1 0x7F AND SWAP2 PUSH2 0x18C0 JUMP JUMPDEST SWAP1 PUSH1 0x40 MLOAD SWAP2 DUP3 PUSH1 0x0 DUP3 SLOAD SWAP3 PUSH2 0x18FF DUP5 PUSH2 0x18B1 JUMP JUMPDEST DUP1 DUP5 MSTORE SWAP4 PUSH1 0x1 DUP2 AND SWAP1 DUP2 ISZERO PUSH2 0x196D JUMPI POP PUSH1 0x1 EQ PUSH2 0x1926 JUMPI JUMPDEST POP PUSH2 0x1924 SWAP3 POP SUB DUP4 PUSH2 0x17ED JUMP JUMPDEST JUMP JUMPDEST SWAP1 POP PUSH1 0x0 SWAP3 SWAP2 SWAP3 MSTORE PUSH1 0x20 PUSH1 0x0 KECCAK256 SWAP1 PUSH1 0x0 SWAP2 JUMPDEST DUP2 DUP4 LT PUSH2 0x1951 JUMPI POP POP SWAP1 PUSH1 0x20 PUSH2 0x1924 SWAP3 DUP3 ADD ADD CODESIZE PUSH2 0x1917 JUMP JUMPDEST PUSH1 0x20 SWAP2 SWAP4 POP DUP1 PUSH1 0x1 SWAP2 SLOAD DUP4 DUP6 DUP10 ADD ADD MSTORE ADD SWAP2 ADD SWAP1 SWAP2 DUP5 SWAP3 PUSH2 0x1938 JUMP JUMPDEST SWAP1 POP PUSH1 0x20 SWAP3 POP PUSH2 0x1924 SWAP5 SWAP2 POP PUSH1 0xFF NOT AND DUP3 DUP5 ADD MSTORE ISZERO ISZERO PUSH1 0x5 SHL DUP3 ADD ADD CODESIZE PUSH2 0x1917 JUMP JUMPDEST PUSH1 0x0 NOT DUP2 EQ PUSH2 0x199E JUMPI PUSH1 0x1 ADD SWAP1 JUMP JUMPDEST PUSH4 0x4E487B71 PUSH1 0xE0 SHL PUSH1 0x0 MSTORE PUSH1 0x11 PUSH1 0x4 MSTORE PUSH1 0x24 PUSH1 0x0 REVERT JUMPDEST SWAP2 SWAP1 DUP3 ADD DUP1 SWAP3 GT PUSH2 0x199E JUMPI JUMP JUMPDEST PUSH1 0x1 PUSH1 0x1 PUSH1 0x40 SHL SUB DUP2 GT PUSH2 0x478 JUMPI PUSH1 0x5 SHL PUSH1 0x20 ADD SWAP1 JUMP JUMPDEST SWAP1 PUSH2 0x19E2 DUP3 PUSH2 0x19C1 JUMP JUMPDEST PUSH2 0x19EF PUSH1 0x40 MLOAD SWAP2 DUP3 PUSH2 0x17ED JUMP JUMPDEST DUP3 DUP2 MSTORE DUP1 SWAP3 PUSH2 0x1A00 PUSH1 0x1F NOT SWAP2 PUSH2 0x19C1 JUMP JUMPDEST ADD SWAP1 PUSH1 0x20 CALLDATASIZE SWAP2 ADD CALLDATACOPY JUMP JUMPDEST DUP1 MLOAD DUP3 LT ISZERO PUSH2 0x1750 JUMPI PUSH1 0x20 SWAP2 PUSH1 0x5 SHL ADD ADD SWAP1 JUMP JUMPDEST ISZERO PUSH2 0x1A25 JUMPI JUMP JUMPDEST PUSH1 0x40 MLOAD PUSH3 0x461BCD PUSH1 0xE5 SHL DUP2 MSTORE PUSH1 0x20 PUSH1 0x4 DUP3 ADD MSTORE PUSH1 0x18 PUSH1 0x24 DUP3 ADD MSTORE PUSH32 0x43616C6C6572206973206E6F7420617574686F72697A65640000000000000000 PUSH1 0x44 DUP3 ADD MSTORE PUSH1 0x64 SWAP1 REVERT JUMPDEST SWAP2 SWAP1 DUP2 LT ISZERO PUSH2 0x1750 JUMPI PUSH1 0x5 SHL ADD SWAP1 JUMP JUMPDEST SWAP2 SWAP1 DUP2 LT ISZERO PUSH2 0x1750 JUMPI PUSH1 0x5 SHL DUP2 ADD CALLDATALOAD SWAP1 PUSH1 0x1E NOT DUP2 CALLDATASIZE SUB ADD DUP3 SLT ISZERO PUSH2 0x677 JUMPI ADD SWAP1 DUP2 CALLDATALOAD SWAP2 PUSH1 0x1 PUSH1 0x1 PUSH1 0x40 SHL SUB DUP4 GT PUSH2 0x677 JUMPI PUSH1 0x20 ADD DUP3 CALLDATASIZE SUB DUP2 SGT PUSH2 0x677 JUMPI SWAP2 SWAP1 JUMP JUMPDEST ISZERO PUSH2 0x1AC2 JUMPI JUMP JUMPDEST PUSH1 0x40 MLOAD PUSH3 0x461BCD PUSH1 0xE5 SHL DUP2 MSTORE PUSH1 0x20 PUSH1 0x4 DUP3 ADD MSTORE PUSH1 0x1A PUSH1 0x24 DUP3 ADD MSTORE PUSH32 0x52656164696E672049442063616E6E6F7420626520656D707479000000000000 PUSH1 0x44 DUP3 ADD MSTORE PUSH1 0x64 SWAP1 REVERT JUMPDEST ISZERO PUSH2 0x1B0E JUMPI JUMP JUMPDEST PUSH1 0x40 MLOAD PUSH3 0x461BCD PUSH1 0xE5 SHL DUP2 MSTORE PUSH1 0x20 PUSH1 0x4 DUP3 ADD MSTORE PUSH1 0x23 PUSH1 0x24 DUP3 ADD MSTORE PUSH32 0x52656164696E672077697468207468697320494420616C726561647920657869 PUSH1 0x44 DUP3 ADD MSTORE PUSH3 0x737473 PUSH1 0xE8 SHL PUSH1 0x64 DUP3 ADD MSTORE PUSH1 0x84 SWAP1 REVERT JUMPDEST CALLDATALOAD PUSH2 0xFFFF DUP2 AND DUP2 SUB PUSH2 0x677 JUMPI SWAP1 JUMP JUMPDEST SWAP1 DUP1 PUSH1 0x20 SWAP4 SWAP3 DUP2 DUP5 MSTORE DUP5 DUP5 ADD CALLDATACOPY PUSH1 0x0 DUP3 DUP3 ADD DUP5 ADD MSTORE PUSH1 0x1F ADD PUSH1 0x1F NOT AND ADD ADD SWAP1 JUMP JUMPDEST SWAP2 SWAP4 PUSH2 0xFFFF PUSH2 0x1BAF DUP2 SWAP4 PUSH2 0x1732 SWAP10 SWAP8 SWAP9 SWAP7 SWAP9 PUSH1 0x80 DUP8 MSTORE PUSH1 0x80 DUP8 ADD SWAP2 PUSH2 0x1B6E JUMP JUMPDEST SWAP7 AND PUSH1 0x20 DUP5 ADD MSTORE AND PUSH1 0x40 DUP3 ADD MSTORE PUSH1 0x60 DUP2 DUP6 SUB SWAP2 ADD MSTORE PUSH2 0x1B6E JUMP JUMPDEST ISZERO PUSH2 0x1BD0 JUMPI JUMP JUMPDEST PUSH1 0x40 MLOAD PUSH3 0x461BCD PUSH1 0xE5 SHL DUP2 MSTORE PUSH1 0x20 PUSH1 0x4 DUP3 ADD MSTORE PUSH1 0x21 PUSH1 0x24 DUP3 ADD MSTORE PUSH32 0x4F6E6C79206F776E65722063616E2063616C6C20746869732066756E6374696F PUSH1 0x44 DUP3 ADD MSTORE PUSH1 0x37 PUSH1 0xF9 SHL PUSH1 0x64 DUP3 ADD MSTORE PUSH1 0x84 SWAP1 REVERT JUMPDEST PUSH1 0x0 SLOAD PUSH1 0x1 PUSH1 0x1 PUSH1 0xA0 SHL SUB SWAP2 DUP3 AND SWAP2 AND DUP2 EQ PUSH2 0x1D42 JUMPI PUSH1 0x0 JUMPDEST PUSH1 0x1 SLOAD DUP1 DUP3 LT ISZERO PUSH2 0x1D09 JUMPI DUP3 PUSH2 0x1C4D DUP4 PUSH2 0x1735 JUMP JUMPDEST SWAP1 SLOAD PUSH1 0x3 SWAP2 SWAP1 SWAP2 SHL SHR PUSH1 0x1 PUSH1 0x1 PUSH1 0xA0 SHL SUB AND EQ PUSH2 0x1C6D JUMPI POP PUSH1 0x1 ADD PUSH2 0x1C38 JUMP JUMPDEST PUSH1 0x0 NOT DUP2 ADD SWAP3 POP DUP3 GT PUSH2 0x199E JUMPI PUSH2 0x1CA1 PUSH2 0x1C89 PUSH2 0x1CC5 SWAP4 PUSH2 0x1735 JUMP JUMPDEST SWAP1 SLOAD PUSH1 0x3 SWAP2 SWAP1 SWAP2 SHL SHR PUSH1 0x1 PUSH1 0x1 PUSH1 0xA0 SHL SUB AND SWAP2 PUSH2 0x1735 JUMP JUMPDEST DUP2 SLOAD PUSH1 0x1 PUSH1 0x1 PUSH1 0xA0 SHL SUB SWAP4 DUP5 AND PUSH1 0x3 SWAP3 SWAP1 SWAP3 SHL SWAP2 DUP3 SHL SWAP4 SWAP1 SWAP2 SHL NOT AND SWAP2 SWAP1 SWAP2 OR SWAP1 SSTORE JUMP JUMPDEST PUSH1 0x1 SLOAD DUP1 ISZERO PUSH2 0x1CF3 JUMPI PUSH1 0x0 NOT ADD PUSH2 0x1CDB DUP2 PUSH2 0x1735 JUMP JUMPDEST DUP2 SLOAD SWAP1 PUSH1 0x1 DUP1 PUSH1 0xA0 SHL SUB SWAP1 PUSH1 0x3 SHL SHL NOT AND SWAP1 SSTORE PUSH1 0x1 SSTORE JUMP JUMPDEST PUSH4 0x4E487B71 PUSH1 0xE0 SHL PUSH1 0x0 MSTORE PUSH1 0x31 PUSH1 0x4 MSTORE PUSH1 0x24 PUSH1 0x0 REVERT JUMPDEST PUSH1 0x40 MLOAD PUSH3 0x461BCD PUSH1 0xE5 SHL DUP2 MSTORE PUSH1 0x20 PUSH1 0x4 DUP3 ADD MSTORE PUSH1 0x11 PUSH1 0x24 DUP3 ADD MSTORE PUSH17 0x1059191C995CDCC81B9BDD08199BDD5B99 PUSH1 0x7A SHL PUSH1 0x44 DUP3 ADD MSTORE PUSH1 0x64 SWAP1 REVERT JUMPDEST PUSH1 0x40 MLOAD PUSH3 0x461BCD PUSH1 0xE5 SHL DUP2 MSTORE PUSH1 0x20 PUSH1 0x4 DUP3 ADD MSTORE PUSH1 0x13 PUSH1 0x24 DUP3 ADD MSTORE PUSH19 0x21B0B73737BA103932B6B7BB329037BBB732B9 PUSH1 0x69 SHL PUSH1 0x44 DUP3 ADD MSTORE PUSH1 0x64 SWAP1 REVERT JUMPDEST PUSH1 0x1 PUSH1 0x1 PUSH1 0xA0 SHL SUB DUP2 AND SWAP1 DUP2 ISZERO PUSH2 0x1DF1 JUMPI PUSH1 0x1 SLOAD SWAP2 PUSH1 0x0 JUMPDEST DUP4 DUP2 LT PUSH2 0x1DC2 JUMPI POP POP PUSH9 0x10000000000000000 DUP3 LT ISZERO PUSH2 0x478 JUMPI PUSH2 0x1CA1 DUP3 PUSH1 0x1 PUSH2 0x1924 SWAP5 ADD PUSH1 0x1 SSTORE PUSH2 0x1735 JUMP JUMPDEST DUP2 PUSH2 0x1DCC DUP3 PUSH2 0x1735 JUMP JUMPDEST SWAP1 SLOAD PUSH1 0x3 SWAP2 SWAP1 SWAP2 SHL SHR PUSH1 0x1 PUSH1 0x1 PUSH1 0xA0 SHL SUB AND EQ PUSH2 0x1DEB JUMPI PUSH1 0x1 ADD PUSH2 0x1D95 JUMP JUMPDEST POP POP POP POP JUMP JUMPDEST PUSH1 0x40 MLOAD PUSH3 0x461BCD PUSH1 0xE5 SHL DUP2 MSTORE PUSH1 0x20 PUSH1 0x4 DUP3 ADD MSTORE PUSH1 0xF PUSH1 0x24 DUP3 ADD MSTORE PUSH15 0x496E76616C69642061646472657373 PUSH1 0x88 SHL PUSH1 0x44 DUP3 ADD MSTORE PUSH1 0x64 SWAP1 REVERT INVALID LOG2 PUSH5 0x6970667358 0x22 SLT KECCAK256 PC BYTE LT 0xB6 GASPRICE 0xB0 PUSH12 0xEAE5A515B3210DDE3E6EAF1D 0xBE KECCAK256 0xDE 0xA8 0xB7 MSIZE 0xF7 DUP5 CODESIZE PUSH19 0xAA582964736F6C634300081C00330000000000 "},"methodIdentifiers":{"addAuthorizedSource(address)":"becd7b3f","authorizedSources(uint256)":"05ce8250","batchRecordReadings(uint256[],string[],uint16[],uint16[],string[],string[])":"b3875cad","doesReadingExist(string)":"aaf5d93b","getAuthorizedSourcesCount()":"5abbd50b","getReading(uint256)":"0087a788","getReadingsByTimeRange(uint256,uint256,uint256,uint256)":"34f2f28f","owner()":"8da5cb5b","readingExists(string)":"91fe4a22","readings(uint256)":"d5da886d","readingsCount()":"6462069d","recordReading(uint256,string,uint16,uint16,string,string)":"f404a3b1","removeAuthorizedSource(address)":"b497560e"}}}}}