{
  "_format": "hh-sol-artifact-1",
  "contractName": "AirQualityRecord",
  "sourceName": "contracts/AirQualityRecord.sol",
  "abi": [
    {
      "inputs": [],
      "stateMutability": "nonpayable",
      "type": "constructor"
    },
    {
      "anonymous": false,
      "inputs": [
        {
          "indexed": false,
          "internalType": "uint256",
          "name": "batchSize",
          "type": "uint256"
        },
        {
          "indexed": false,
          "internalType": "uint256",
          "name": "startTimestamp",
          "type": "uint256"
        },
        {
          "indexed": false,
          "internalType": "uint256",
          "name": "endTimestamp",
          "type": "uint256"
        }
      ],
      "name": "BatchReadingsRecorded",
      "type": "event"
    },
    {
      "anonymous": false,
      "inputs": [
        {
          "indexed": true,
          "internalType": "uint256",
          "name": "timestamp",
          "type": "uint256"
        },
        {
          "indexed": false,
          "internalType": "string",
          "name": "readingId",
          "type": "string"
        },
        {
          "indexed": false,
          "internalType": "uint16",
          "name": "pm10Value",
          "type": "uint16"
        },
        {
          "indexed": false,
          "internalType": "uint16",
          "name": "pm25Value",
          "type": "uint16"
        },
        {
          "indexed": false,
          "internalType": "string",
          "name": "category",
          "type": "string"
        }
      ],
      "name": "PollutionReadingRecorded",
      "type": "event"
    },
    {
      "inputs": [
        {
          "internalType": "address",
          "name": "_source",
          "type": "address"
        }
      ],
      "name": "addAuthorizedSource",
      "outputs": [],
      "stateMutability": "nonpayable",
      "type": "function"
    },
    {
      "inputs": [
        {
          "internalType": "uint256",
          "name": "",
          "type": "uint256"
        }
      ],
      "name": "authorizedSources",
      "outputs": [
        {
          "internalType": "address",
          "name": "",
          "type": "address"
        }
      ],
      "stateMutability": "view",
      "type": "function"
    },
    {
      "inputs": [
        {
          "internalType": "uint256[]",
          "name": "_timestamps",
          "type": "uint256[]"
        },
        {
          "internalType": "string[]",
          "name": "_readingIds",
          "type": "string[]"
        },
        {
          "internalType": "uint16[]",
          "name": "_pm10Values",
          "type": "uint16[]"
        },
        {
          "internalType": "uint16[]",
          "name": "_pm25Values",
          "type": "uint16[]"
        },
        {
          "internalType": "string[]",
          "name": "_locations",
          "type": "string[]"
        },
        {
          "internalType": "string[]",
          "name": "_categories",
          "type": "string[]"
        }
      ],
      "name": "batchRecordReadings",
      "outputs": [],
      "stateMutability": "nonpayable",
      "type": "function"
    },
    {
      "inputs": [
        {
          "internalType": "string",
          "name": "_readingId",
          "type": "string"
        }
      ],
      "name": "doesReadingExist",
      "outputs": [
        {
          "internalType": "bool",
          "name": "",
          "type": "bool"
        }
      ],
      "stateMutability": "view",
      "type": "function"
    },
    {
      "inputs": [],
      "name": "getAuthorizedSourcesCount",
      "outputs": [
        {
          "internalType": "uint256",
          "name": "",
          "type": "uint256"
        }
      ],
      "stateMutability": "view",
      "type": "function"
    },
    {
      "inputs": [
        {
          "internalType": "uint256",
          "name": "_index",
          "type": "uint256"
        }
      ],
      "name": "getReading",
      "outputs": [
        {
          "internalType": "uint256",
          "name": "timestamp",
          "type": "uint256"
        },
        {
          "internalType": "string",
          "name": "readingId",
          "type": "string"
        },
        {
          "internalType": "uint16",
          "name": "pm10Value",
          "type": "uint16"
        },
        {
          "internalType": "uint16",
          "name": "pm25Value",
          "type": "uint16"
        },
        {
          "internalType": "string",
          "name": "location",
          "type": "string"
        },
        {
          "internalType": "string",
          "name": "category",
          "type": "string"
        }
      ],
      "stateMutability": "view",
      "type": "function"
    },
    {
      "inputs": [
        {
          "internalType": "uint256",
          "name": "_startTime",
          "type": "uint256"
        },
        {
          "internalType": "uint256",
          "name": "_endTime",
          "type": "uint256"
        },
        {
          "internalType": "uint256",
          "name": "_limit",
          "type": "uint256"
        },
        {
          "internalType": "uint256",
          "name": "_offset",
          "type": "uint256"
        }
      ],
      "name": "getReadingsByTimeRange",
      "outputs": [
        {
          "internalType": "uint256[]",
          "name": "indices",
          "type": "uint256[]"
        },
        {
          "internalType": "uint256[]",
          "name": "timestamps",
          "type": "uint256[]"
        },
        {
          "internalType": "string[]",
          "name": "readingIds",
          "type": "string[]"
        },
        {
          "internalType": "uint16[]",
          "name": "pm10Values",
          "type": "uint16[]"
        },
        {
          "internalType": "uint16[]",
          "name": "pm25Values",
          "type": "uint16[]"
        }
      ],
      "stateMutability": "view",
      "type": "function"
    },
    {
      "inputs": [],
      "name": "owner",
      "outputs": [
        {
          "internalType": "address",
          "name": "",
          "type": "address"
        }
      ],
      "stateMutability": "view",
      "type": "function"
    },
    {
      "inputs": [
        {
          "internalType": "string",
          "name": "",
          "type": "string"
        }
      ],
      "name": "readingExists",
      "outputs": [
        {
          "internalType": "bool",
          "name": "",
          "type": "bool"
        }
      ],
      "stateMutability": "view",
      "type": "function"
    },
    {
      "inputs": [
        {
          "internalType": "uint256",
          "name": "",
          "type": "uint256"
        }
      ],
      "name": "readings",
      "outputs": [
        {
          "internalType": "uint256",
          "name": "timestamp",
          "type": "uint256"
        },
        {
          "internalType": "string",
          "name": "readingId",
          "type": "string"
        },
        {
          "internalType": "uint16",
          "name": "pm10Value",
          "type": "uint16"
        },
        {
          "internalType": "uint16",
          "name": "pm25Value",
          "type": "uint16"
        },
        {
          "internalType": "string",
          "name": "location",
          "type": "string"
        },
        {
          "internalType": "string",
          "name": "category",
          "type": "string"
        }
      ],
      "stateMutability": "view",
      "type": "function"
    },
    {
      "inputs": [],
      "name": "readingsCount",
      "outputs": [
        {
          "internalType": "uint256",
          "name": "",
          "type": "uint256"
        }
      ],
      "stateMutability": "view",
      "type": "function"
    },
    {
      "inputs": [
        {
          "internalType": "uint256",
          "name": "_timestamp",
          "type": "uint256"
        },
        {
          "internalType": "string",
          "name": "_readingId",
          "type": "string"
        },
        {
          "internalType": "uint16",
          "name": "_pm10Value",
          "type": "uint16"
        },
        {
          "internalType": "uint16",
          "name": "_pm25Value",
          "type": "uint16"
        },
        {
          "internalType": "string",
          "name": "_location",
          "type": "string"
        },
        {
          "internalType": "string",
          "name": "_category",
          "type": "string"
        }
      ],
      "name": "recordReading",
      "outputs": [],
      "stateMutability": "nonpayable",
      "type": "function"
    },
    {
      "inputs": [
        {
          "internalType": "address",
          "name": "_source",
          "type": "address"
        }
      ],
      "name": "removeAuthorizedSource",
      "outputs": [],
      "stateMutability": "nonpayable",
      "type": "function"
    }
  ],
  "bytecode": "0x6080806040523460ab57600080546001600160a01b03191633179055600154680100000000000000008110156095576001810180600155811015607f5760016000527fb10e2d527612073b26eecdfd717e6a320cf44b4afac2b0732d9fcbe2b7fa0cf60180546001600160a01b03191633179055611e5e90816100b18239f35b634e487b7160e01b600052603260045260246000fd5b634e487b7160e01b600052604160045260246000fd5b600080fdfe61028080604052600436101561001457600080fd5b60003560e01c90816287a788146115ab5750806305ce82501461156957806334f2f28f146111c75780635abbd50b146111a95780636462069d1461118b5780638da5cb5b1461116257806391fe4a22146110f0578063aaf5d93b1461109a578063b3875cad14610771578063b497560e1461072f578063becd7b3f146106eb578063d5da886d1461067c5763f404a3b1146100ae57600080fd5b346106775760c0366003190112610677576004356024356001600160401b038111610677576100e1903690600401611854565b604435929161ffff8416808503610677576064359061ffff821691828103610677576084356001600160401b03811161067757610122903690600401611854565b979060a4356001600160401b03811161067757610143903690600401611854565b959094600060018060a01b0360005416331460001461060f57506101676001611a1e565b610172891515611abb565b61019460ff6040518b8b82376020818d81016004815203019020541615611b07565b6101cf604051936101a4856117d2565b8b85526101b2368c8c61180e565b9c602086019d8e526040860193845260608601948552369161180e565b91608084019283526101e236898961180e565b9b60a085019c8d5260025460005260036020526040600020945185556001850190518051906001600160401b03821161047857819061022184546118b1565b601f81116105bc575b50602090601f83116001146105575760009261054c575b50508160011b916000199060031b1c19161790555b61ffff6002850192511663ffff00008354925160101b169163ffffffff1916171790556003820190518051906001600160401b0382116104785761029a83546118b1565b601f8111610504575b50602090601f8311600114610499576004949392916000918361048e575b50508160011b916000199060031b1c19161790555b0197519788516001600160401b038111610478576102f482546118b1565b601f8111610430575b506020601f82116001146103a05790806103909796959493927f98c8159409888d0e18aa2b51f47b8635504232a3c0e9b170631c0804572dde149b9c600092610395575b50508160011b916000199060031b1c19161790555b604051878782376020818981016004815203019020600160ff1982541617905561038160025461198f565b60025560405196879687611b8f565b0390a2005b015190503880610341565b601f1982169a83600052816000209b60005b81811061041857509b60019284926103909a99989796957f98c8159409888d0e18aa2b51f47b8635504232a3c0e9b170631c0804572dde149e9f106103ff575b505050811b019055610356565b015160001960f88460031b161c191690553880806103f2565b838301518e556001909d019c602093840193016103b2565b826000526020600020601f830160051c8101916020841061046e575b601f0160051c01905b81811061046257506102fd565b60008155600101610455565b909150819061044c565b634e487b7160e01b600052604160045260246000fd5b0151905038806102c1565b90601f1983169184600052816000209260005b8181106104ec5750916001939185600498979694106104d3575b505050811b0190556102d6565b015160001960f88460031b161c191690553880806104c6565b929360206001819287860151815501950193016104ac565b836000526020600020601f840160051c81019160208510610542575b601f0160051c01905b81811061053657506102a3565b60008155600101610529565b9091508190610520565b015190503880610241565b60008581528281209350601f198516905b8181106105a4575090846001959493921061058b575b505050811b019055610256565b015160001960f88460031b161c1916905538808061057e565b92936020600181928786015181550195019301610568565b909150836000526020600020601f840160051c81019160208510610605575b90601f859493920160051c01905b8181106105f6575061022a565b600081558493506001016105e9565b90915081906105db565b6001549a9998979695949392919060005b8c811061063d575b506101679192939495969798999a9b50611a1e565b61064681611735565b90543360039290921b1c6001600160a01b03161461066657600101610620565b50999a508a99506001610167610628565b600080fd5b3461067757602036600319011261067757600435600052600360205260406000208054906106e76106af600183016118eb565b916002810154906106ce60046106c7600384016118eb565b92016118eb565b9160405195869561ffff808460101c16931691876116e3565b0390f35b34610677576020366003190112610677576004356001600160a01b03811681036106775761072d9061072860018060a01b03600054163314611bc9565b611d7d565b005b34610677576020366003190112610677576004356001600160a01b03811681036106775761072d9061076c60018060a01b03600054163314611bc9565b611c1f565b346106775760c0366003190112610677576004356001600160401b038111610677576107a1903690600401611881565b610220526024356001600160401b038111610677576107c4903690600401611881565b6101c0526044356001600160401b038111610677576107e7903690600401611881565b6101a052610180526064356001600160401b0381116106775761080e903690600401611881565b61026052610120526084356001600160401b03811161067757610835903690600401611881565b906101e0529060a4356001600160401b0381116106775761085a903690600401611881565b610160526101405260008054336001600160a01b039091160361104257506108826001611a1e565b6101c051610220511480611033575b80611024575b80611018575b80611009575b15610fc4576102205115610f875760646102205111610f4b57823561020052610200516102405260005b61022051811061092a576108e6610220516002546119b4565b6002557f5ef6c1fa8c7e1363d7f137af202aeea6d7027f2dd5b96cf545072d94a1e335d56060604051610220518152610200516020820152610240516040820152a1005b61094461093b826101c05185611a7a565b90501515611abb565b61097660ff6020610959846101c05187611a7a565b919082604051938492833781016004815203019020541615611b07565b61020051610988826102205187611a6a565b3510610f33575b610240516109a1826102205187611a6a565b3511610f1b575b6109b6816102205186611a6a565b35610a736109c8836101c05186611a7a565b906109e26109dd866101a05161018051611a6a565b611b5f565b61010052610a676109fd6109dd876102605161012051611a6a565b61ffff610a0e888b6101e051611a7a565b919092610a3e610a258b6101605161014051611a7a565b9790986040519b610a358d6117d2565b8c52369161180e565b60e0526020890160c05260e05160c0515281610100511660408a0152166060880152369161180e565b6080850152369161180e565b60a0820152610a84826002546119b4565b6000526003602052604060002060a052805160a0515560c051518051906001600160401b038211610478578190610ac0600160a05101546118b1565b601f8111610ec6575b50602090601f8311600114610e5157600092610e46575b50508160011b916000199060031b1c191617600160a05101555b600260a0510161ffff60408301511681549063ffff0000606085015160101b169163ffffffff1916171790556080810151608052608051516001600160401b03811161047857610b4f600360a05101546118b1565b601f8111610dfd575b506020601f8211600114610d8757908060a09392600091610d7a575b508160011b916000199060031b1c1916176003835101555b01518051906001600160401b03821161047857610bae600460a05101546118b1565b601f8111610d31575b50602090601f8311600114610cbb57600193929160009183610cb0575b505081841b916000199060031b1c191617600460a05101555b6020610bfd826101c05186611a7a565b9190826040519384928337810160048152030190208260ff19825416179055610c2a816102205187611a6a565b357f98c8159409888d0e18aa2b51f47b8635504232a3c0e9b170631c0804572dde14610c5a836101c05187611a7a565b90610ca7610c726109dd876101a05161018051611a6a565b610c866109dd886102605161012051611a6a565b90610c98886101605161014051611a7a565b92909160405196879687611b8f565b0390a2016108cd565b015190508780610bd4565b90600460a05101600052806000209160005b601f1985168110610d19575091839160019594938694601f19811610610d00575b505050811b01600460a0510155610bed565b015160001960f88460031b161c19169055878080610cee565b91926020600181928685015181550194019201610ccd565b600460a051016000526020600020601f840160051c810160208510610d73575b601f830160051c82018110610d67575050610bb7565b60008155600101610d51565b5080610d51565b9050608051015188610b74565b600360a05101600052806000209060005b601f1984168110610de357509160019160a0949382601f19811610610dc8575b5050811b01600383510155610b8c565b608051015160001960f88460031b161c191690558880610db8565b909160206001819285608051015181550193019101610d98565b600360a051016000526020600020601f830160051c810160208410610e3f575b601f830160051c82018110610e33575050610b58565b60008155600101610e1d565b5080610e1d565b015190508780610ae0565b9250600160a0510160005280600020906000935b601f1984168510610eab576001945083601f19811610610e92575b505050811b01600160a0510155610afa565b015160001960f88460031b161c19169055878080610e80565b81810151835560209485019460019093019290910190610e65565b909150600160a051016000526020600020601f840160051c810160208510610f14575b90849392915b601f830160051c82018110610f05575050610ac9565b60008155859450600101610eef565b5080610ee9565b610f29816102205186611a6a565b35610240526109a8565b610f41816102205186611a6a565b356102005261098f565b60405162461bcd60e51b815260206004820152601460248201527342617463682073697a6520746f6f206c6172676560601b6044820152606490fd5b60405162461bcd60e51b815260206004820152601560248201527442617463682063616e6e6f7420626520656d70747960581b6044820152606490fd5b60405162461bcd60e51b815260206004820152601a60248201527f4172726179206c656e6774687320646f206e6f74206d617463680000000000006044820152606490fd5b506101605161022051146108a3565b5081610220511461089d565b50610260516102205114610897565b506101a0516102205114610891565b60015492919060005b848110611060575b5061088291929350611a1e565b61106981611735565b90543360039290921b1c6001600160a01b0316146110895760010161104b565b509192508291506001610882611053565b34610677576020366003190112610677576004356001600160401b0381116106775760ff60206110cf81933690600401611854565b91908260405193849283378101600481520301902054166040519015158152f35b34610677576020366003190112610677576004356001600160401b03811161067757366023820112156106775760ff61114c60206111398194369060248160040135910161180e565b816040519382858094519384920161169b565b8101600481520301902054166040519015158152f35b34610677576000366003190112610677576000546040516001600160a01b039091168152602090f35b34610677576000366003190112610677576020600254604051908152f35b34610677576000366003190112610677576020600154604051908152f35b346106775760803660031901126106775760643560443560043560243580821161152f57606483116114f857600090819282600254905b818110806114e6575b156112815780600052600360205282604060002054101580611269575b611237575b6112329061198f565b6111fe565b94878110156112555761124c6112329161198f565b955b9050611229565b94936112636112329161198f565b9461124e565b50806000526003602052836040600020541115611224565b509491935091818111156114de5750915b61129b836119d8565b946112a5846119d8565b6112ae856119c1565b906112bc60405192836117ed565b858252601f196112cb876119c1565b0160005b8181106114cd5750506112e1866119d8565b926112eb876119d8565b946000968798885b8b8110806114c4575b1561141257806000526003602052826040600020541015806113fa575b61132c575b6113279061198f565b6112f3565b998c8582101561134c57506113436113279161198f565b9a5b905061131e565b8a8c611360611327949e9d6113f494611a0a565b528b600052600360205260406000205461137a828a611a0a565b528b600052600360205261139460016040600020016118eb565b61139e828b611a0a565b526113a9818a611a0a565b508b600052600360205261ffff600260406000200154166113ca828c611a0a565b528b600052600360205261ffff60026040600020015460101c166113ee828d611a0a565b5261198f565b99611345565b50806000526003602052836040600020541115611319565b6114318d8a898b61143f8b60405196879660a0885260a0880190611766565b908682036020880152611766565b8481036040860152825180825260208201916020808360051b8301019501926000915b83831061148f5788806106e78a6114818b8b858203606087015261179a565b90838203608085015261179a565b91939697509193946020806114b0600193601f198682030187528a516116be565b980193019301909288979695949293611462565b50818a106112fc565b8060606020809387010152016112cf565b905091611292565b506114f188886119b4565b8510611207565b60405162461bcd60e51b815260206004820152600f60248201526e4c696d697420746f6f206c6172676560881b6044820152606490fd5b60405162461bcd60e51b8152602060048201526012602482015271496e76616c69642074696d652072616e676560701b6044820152606490fd5b346106775760203660031901126106775760043560015481101561067757611592602091611735565b905460405160039290921b1c6001600160a01b03168152f35b3461067757602036600319011261067757600435906002548210156116605750600052600360205260406000206040516115e4816117d2565b815481526106e76115f7600184016118eb565b91602081019283526002840154604082019461ffff8216865261ffff606084019260101c16825261ffff806116416004611633600386016118eb565b9460808801958652016118eb565b948560a0820152519651975116925116905191604051968796876116e3565b62461bcd60e51b8152602060048201526016602482015275149958591a5b99c8191bd95cc81b9bdd08195e1a5cdd60521b6044820152606490fd5b60005b8381106116ae5750506000910152565b818101518382015260200161169e565b906020916116d78151809281855285808601910161169b565b601f01601f1916010190565b9490611732969461ffff61170a611724969582948a5260c060208b015260c08a01906116be565b9416604088015216606086015284820360808601526116be565b9160a08184039101526116be565b90565b60015481101561175057600160005260206000200190600090565b634e487b7160e01b600052603260045260246000fd5b906020808351928381520192019060005b8181106117845750505090565b8251845260209384019390920191600101611777565b906020808351928381520192019060005b8181106117b85750505090565b825161ffff168452602093840193909201916001016117ab565b60c081019081106001600160401b0382111761047857604052565b90601f801991011681019081106001600160401b0382111761047857604052565b9291926001600160401b0382116104785760405191611837601f8201601f1916602001846117ed565b829481845281830111610677578281602093846000960137010152565b9181601f84011215610677578235916001600160401b038311610677576020838186019501011161067757565b9181601f84011215610677578235916001600160401b038311610677576020808501948460051b01011161067757565b90600182811c921680156118e1575b60208310146118cb57565b634e487b7160e01b600052602260045260246000fd5b91607f16916118c0565b90604051918260008254926118ff846118b1565b808452936001811690811561196d5750600114611926575b50611924925003836117ed565b565b90506000929192526020600020906000915b8183106119515750509060206119249282010138611917565b6020919350806001915483858901015201910190918492611938565b90506020925061192494915060ff191682840152151560051b82010138611917565b600019811461199e5760010190565b634e487b7160e01b600052601160045260246000fd5b9190820180921161199e57565b6001600160401b0381116104785760051b60200190565b906119e2826119c1565b6119ef60405191826117ed565b8281528092611a00601f19916119c1565b0190602036910137565b80518210156117505760209160051b010190565b15611a2557565b60405162461bcd60e51b815260206004820152601860248201527f43616c6c6572206973206e6f7420617574686f72697a656400000000000000006044820152606490fd5b91908110156117505760051b0190565b91908110156117505760051b81013590601e19813603018212156106775701908135916001600160401b038311610677576020018236038113610677579190565b15611ac257565b60405162461bcd60e51b815260206004820152601a60248201527f52656164696e672049442063616e6e6f7420626520656d7074790000000000006044820152606490fd5b15611b0e57565b60405162461bcd60e51b815260206004820152602360248201527f52656164696e672077697468207468697320494420616c72656164792065786960448201526273747360e81b6064820152608490fd5b3561ffff811681036106775790565b908060209392818452848401376000828201840152601f01601f1916010190565b919361ffff611baf81936117329997989698608087526080870191611b6e565b961660208401521660408201526060818503910152611b6e565b15611bd057565b60405162461bcd60e51b815260206004820152602160248201527f4f6e6c79206f776e65722063616e2063616c6c20746869732066756e6374696f6044820152603760f91b6064820152608490fd5b6000546001600160a01b0391821691168114611d425760005b60015480821015611d095782611c4d83611735565b905460039190911b1c6001600160a01b031614611c6d5750600101611c38565b60001981019250821161199e57611ca1611c89611cc593611735565b905460039190911b1c6001600160a01b031691611735565b81546001600160a01b0393841660039290921b91821b9390911b1916919091179055565b6001548015611cf35760001901611cdb81611735565b81549060018060a01b039060031b1b19169055600155565b634e487b7160e01b600052603160045260246000fd5b60405162461bcd60e51b81526020600482015260116024820152701059191c995cdcc81b9bdd08199bdd5b99607a1b6044820152606490fd5b60405162461bcd60e51b815260206004820152601360248201527221b0b73737ba103932b6b7bb329037bbb732b960691b6044820152606490fd5b6001600160a01b038116908115611df1576001549160005b838110611dc25750506801000000000000000082101561047857611ca18260016119249401600155611735565b81611dcc82611735565b905460039190911b1c6001600160a01b031614611deb57600101611d95565b50505050565b60405162461bcd60e51b815260206004820152600f60248201526e496e76616c6964206164647265737360881b6044820152606490fdfea2646970667358221220581a10b63ab06beae5a515b3210dde3e6eaf1dbe20dea8b759f7843872aa582964736f6c634300081c0033",
  "linkReferences": {},
  "deployedLinkReferences": {}
}